:020000040800F2
:1000000000040020D10F0008F1100008F1100008D2
:10001000F1100008F1100008F1100008F1100008BC
:10002000F1100008F1100008F1100008211100087B
:10003000F1100008F1100008F1100008211200086A
:10004000F1100008F1100008F1100008F11000088C
:10005000F1100008F1100008F1100008F11000087C
:10006000F1100008F1100008F1100008A13000089C
:10007000D130000801310008413100088131000809
:10008000C13100080132000831390008B13B0008D5
:10009000515C0008113C0008A13C0008F110000868
:1000A000F1100008E13D0008F1100008013E0008D1
:1000B000013F0008213E0008413E0008F110000801
:1000C000F1100008F1100008F1100008F11000080C
:1000D000F1100008A1420008C1420008E1420008F6
:1000E000F1100008F1100008F1100008F1100008EC
:1000F000613E0008F1100008813E000861390008E7
:10010000F1100008F1100008F1100008F1100008CB
:10011000F1100008F1100008F1100008F1100008BB
:100120004132000871320008A1320008E1320008B3
:1001300021330008F1100008F1100008F110000848
:10014000F1100008F1100008F1100008F11000088B
:10015000F1100008F1100008F1100008F11000087B
:10016000F1100008F1100008D1440008F144000823
:10017000F1100008F1100008F1100008F11000085B
:08018000F1100008F110000865
:100190002DE9F04FEFB002F00BF801F0C9F805F0CF
:1001A000C7FF06F07DFAC148DFF884B3DFF884A307
:1001B000DFF88493DFF884830021072206F090FCA7
:1001C0000722BA480121002406F08AFC01250323F6
:1001D0000226B648659365A98DF899318DF8986126
:1001E0008DF89A418DF89B5106F01AFCB02114202D
:1001F00001F04EF8AE4BDA6942F00072DA6167A89E
:1002000006F086FB0827072367A9AA488DF8A131C5
:100210008DF8A2418DF8A3418DF8A4418DF8A54138
:100220008DF8A6418DF8A7418DF89E418DF89F412C
:10023000ADF89C618DF8A07106F05AFA6AA88DF8A5
:10024000B2418DF8B3418DF8B451ADF8A841ADF885
:10025000AA41ADF8AC41ADF8AE41ADF8B0418DF872
:10026000B55106F0D5FA2A4631469248924E934D42
:1002700006F0C6FB2146924802F012F93946914831
:10028000914F40F2823203F003FF40F282328D48F8
:10029000102103F0FDFE21468C4802F001F94FF0D9
:1002A00090404FF4007140F2823203F0F1FE40F2D0
:1002B00082324FF090404FF4806103F0E9FE214616
:1002C000834802F0EDF87F484FF4806140F28232BB
:1002D00003F0DEFE40F282324FF400417D4803F02D
:1002E000D7FE7D4802F0ECF97C497B4802F010FA19
:1002F000C82001F03DFC794B7949186802F088FB71
:100300000094784B78484FF4A761402201F0F8FB45
:100310000094764B76484FF4A761402201F0F0FB41
:1003200000947448744B754C4FF4A761402201F05F
:10033000E7FB06F0D5F9DFF808E2714BDEF80000C4
:100340001A68639200F050FBCDE90001DFF8F4E198
:10035000DAF80030DEF80000DBF8001003930291B9
:1003600000F042FBCDE90401664B186800F03CFB4D
:10037000CDE90601DFF8D0E1D8F80030DEF8000062
:10038000D9F800100993089100F02EFBCDE90A017D
:100390005D4B186800F028FBCDE90C01DFF8ACE1FB
:1003A000DEF8000000F020FBCDE90E01574B186885
:1003B00000F01AFBCDE91001DFF894E1DEF800004F
:1003C00000F012FBCDE91201514B186800F00CFB54
:1003D000CDE91401DFF87CE1DEF8000000F004FB59
:1003E000CDE916014B4B186800F0FEFACDE9180173
:1003F000DFF864E1DEF8000000F0F6FACDE91A015A
:10040000454B186800F0F0FACDE91C01DFF84CE12B
:10041000DEF8000000F0E8FA404BCDE91E01186854
:1004200000F0E2FACDE92001DFF834E1DEF8000067
:1004300000F0DAFACDE92201394B186800F0D4FA5D
:10044000CDE92401DFF81CE1DEF8000000F0CCFA71
:10045000CDE92601334B186800F0C6FACDE9280132
:10046000DFF804E1DEF8000000F0BEFACDE92A0171
:100470002D4B186800F0B8FACDE92C01DFF8ECE05C
:10048000DEF8000000F0B0FACDE92E01274B186825
:1004900000F0AAFACDE93001DFF8D4E0DEF8000080
:1004A00000F0A2FACDE9320164E000BF000C004880
:1004B00000100240006400403C2E00202C2E002042
:1004C00008100020000400481C2E00208C0F002083
:1004D00084100020001000485C1F002040770008B6
:1004E000107600081158000888220020E152000808
:1004F000B8190020A812002051500008C02B00207D
:1005000028120020BC210020C82100202022002029
:100510004C190020241800202C22002098190020BB
:100520007812002020120020581200200819002004
:10053000401900202C1900203818002068180020CD
:10054000F821002094120020541900208019002066
:10055000B0190020381F00202C120020CC210020D0
:1005600098180020F8110020282200208819002067
:10057000C0270020514B186800F036FACDE934014D
:10058000DFF86CE1DEF8000000F02EFACDE936016C
:100590004B4B186800F028FACDE93801DFF854E138
:1005A000DEF8000000F020FACDE93A01454B18686A
:1005B00000F01AFACDE93C01DFF83CE1DEF800007A
:1005C00000F012FACDE93E013F4B186800F00CFA3A
:1005D000DFF828E1CDE94001DEF8000000F004FA80
:1005E000CDE94201394B186800F0FEF9CDE944012C
:1005F000DFF80CE1DEF8000000F0F6F9CDE9460185
:10060000334B186800F0F0F9CDE94801DFF8F4E069
:10061000DEF8000000F0E8F9CDE94A012D4B18683A
:1006200000F0E2F9CDE94C01DFF8DCE0DEF8000093
:1006300000F0DAF9CDE94E01274B186800F0D4F943
:10064000CDE95001DFF8C4E0DEF8000000F0CCF99D
:10065000CDE95201214B186800F0C6F9CDE95401EB
:10066000DFF8ACE0DEF8000000F0BEF9CDE956019D
:100670001B4B186800F0B8F9CDE95801DFF894E099
:10068000DEF8000000F0B0F9CDE95A01154B18680A
:1006900000F0AAF93B685E9333685F932B68CDE95D
:1006A0005C01609323686193639A0F480F4905F0DA
:1006B000B7FA4FF4FA7001F05BFA3AE6001900203D
:1006C0001C120020501F00206018002080220020F3
:1006D000182200205C1900205C120020142E00203B
:1006E000682E0020702E00208C0F002084770008D8
:1006F0000018002024220020841900206812002005
:10070000F0110020441F002040180020102E00206F
:10071000CC2B00206C2E0020AFF30080AFF30080C4
:1007200081F0004102E000BF83F0004330B54FEAA2
:1007300041044FEA430594EA050F08BF90EA020F0F
:100740001FBF54EA000C55EA020C7FEA645C7FEAA2
:10075000655C00F0E2804FEA5454D4EB5555B8BFC5
:100760006D420CDD2C4480EA020281EA030382EA36
:10077000000083EA010180EA020281EA0303362DC8
:1007800088BF30BD11F0004F4FEA01314FF4801C9B
:100790004CEA113102D0404261EB410113F0004FAD
:1007A0004FEA03334CEA133302D0524263EB430364
:1007B00094EA050F00F0A780A4F10104D5F1200E02
:1007C0000DDB02FA0EFC22FA05F2801841F100015D
:1007D00003FA0EF2801843FA05F359410EE0A5F131
:1007E00020050EF1200E012A03FA0EFC28BF4CF062
:1007F000020C43FA05F3C01851EBE37101F0004518
:1008000007D54FF0000EDCF1000C7EEB00006EEB24
:100810000101B1F5801F1BD3B1F5001F0CD34908AE
:100820005FEA30004FEA3C0C04F101044FEA445205
:1008300012F5800F80F09A80BCF1004F08BF5FEA8C
:10084000500C50F1000041EB045141EA050130BD6C
:100850005FEA4C0C404141EB010111F4801FA4F10F
:100860000104E9D191F0000F04BF01460020B1FA64
:1008700081F308BF2033A3F10B03B3F120020CDA9C
:100880000C3208DD02F1140CC2F10C0201FA0CF07A
:1008900021FA02F10CE002F11402D8BFC2F1200CDF
:1008A00001FA02F120FA0CFCDCBF41EA0C01904095
:1008B000E41AA2BF01EB0451294330BD6FEA0404DE
:1008C0001F3C1CDA0C340EDC04F11404C4F12002C9
:1008D00020FA04F001FA02F340EA030021FA04F3DB
:1008E00045EA030130BDC4F10C04C4F1200220FA32
:1008F00002F001FA04F340EA0300294630BD21FA70
:1009000004F0294630BD94F0000F83F4801306BF35
:1009100081F480110134013D4EE77FEA645C18BF29
:100920007FEA655C29D094EA050F08BF90EA020FC0
:1009300005D054EA000C04BF1946104630BD91EAB8
:10094000030F1EBF0021002030BD5FEA545C05D1BB
:100950004000494128BF41F0004130BD14F58004FA
:100960003CBF01F5801130BD01F0004545F0FE416E
:1009700041F470014FF0000030BD7FEA645C1ABFA3
:10098000194610467FEA655C1CBF0B46024650EADA
:10099000013406BF52EA033591EA030F41F4002106
:1009A00030BD00BF90F0000F04BF0021704730B58C
:1009B0004FF4806404F132044FF000054FF0000161
:1009C00050E700BF90F0000F04BF0021704730B522
:1009D0004FF4806404F1320410F0004548BF4042F7
:1009E0004FF000013EE700BF42004FEAE2014FEA4C
:1009F00031014FEA02701FBF12F07F4393F07F4F27
:100A000081F06051704792F0000F14BF93F07F4F58
:100A1000704730B54FF4607401F0004521F000419B
:100A200020E700BF50EA010208BF704730B54FF021
:100A300000050AE050EA010208BF704730B511F026
:100A4000004502D5404261EB41014FF4806404F15E
:100A500032045FEA915C3FF4DCAE4FF003025FEAE0
:100A6000DC0C18BF03325FEADC0C18BF033202EB68
:100A7000DC02C2F1200300FA03FC20FA02F001FAC2
:100A800003FE40EA0E0021FA02F11444C1E600BF61
:100A900070B54FF0FF0C4CF4E06C1CEA11541DBF14
:100AA0001CEA135594EA0C0F95EA0C0F00F0DEF8DF
:100AB0002C4481EA030621EA4C5123EA4C5350EAC4
:100AC000013518BF52EA033541F4801143F4801315
:100AD00038D0A0FB02CE4FF00005E1FB02E506F0A6
:100AE0000042E0FB03E54FF00006E1FB03569CF0FB
:100AF000000F18BF4EF0010EA4F1FF04B6F5007F01
:100B000064F5407404D25FEA4E0E6D4146EB060672
:100B100042EAC62141EA55514FEAC52040EA5E50FB
:100B20004FEACE2EB4F1FD0C88BFBCF5E06F1ED8A5
:100B3000BEF1004F08BF5FEA500E50F1000041EBDC
:100B4000045170BD06F0004646EA010140EA020089
:100B500081EA0301B4EB5C04C2BFD4EB0C0541EAAB
:100B6000045170BD41F480114FF0000E013C00F3C0
:100B7000AB8014F1360FDEBF002001F0004170BDE4
:100B8000C4F10004203C35DA0C341BDC04F11404FD
:100B9000C4F1200500FA05F320FA04F001FA05F289
:100BA00040EA020001F0004221F0004110EBD37056
:100BB00021FA04F642EB06015EEA430E08BF20EA82
:100BC000D37070BDC4F10C04C4F1200500FA04F325
:100BD00020FA05F001FA04F240EA020001F00041B7
:100BE00010EBD37041F100015EEA430E08BF20EA2A
:100BF000D37070BDC4F1200500FA05F24EEA020E72
:100C000020FA04F301FA05F243EA020321FA04F0A0
:100C100001F0004121FA04F220EA020000EBD37057
:100C20005EEA430E08BF20EAD37070BD94F0000F57
:100C30000FD101F00046400041EB010111F4801F8B
:100C400008BF013CF7D041EA060195F0000F18BF3C
:100C5000704703F00046520043EB030313F4801F78
:100C600008BF013DF7D043EA0603704794EA0C0F32
:100C70000CEA135518BF95EA0C0F0CD050EA410648
:100C800018BF52EA4306D1D181EA030101F00041C5
:100C90004FF0000070BD50EA410606BF10461946ED
:100CA00052EA430619D094EA0C0F02D150EA0136F9
:100CB00013D195EA0C0F05D152EA03361CBF10463A
:100CC00019460AD181EA030101F0004141F0FE41D9
:100CD00041F470014FF0000070BD41F0FE4141F45D
:100CE000780170BD70B54FF0FF0C4CF4E06C1CEA5D
:100CF00011541DBF1CEA135594EA0C0F95EA0C0F12
:100D000000F0A7F8A4EB050481EA030E52EA0335CC
:100D10004FEA013100F088804FEA03334FF08055ED
:100D200045EA131343EA12634FEA022245EA11151A
:100D300045EA10654FEA00260EF000419D4208BFCB
:100D4000964244F1FD0404F5407402D25B084FEA78
:100D50003202B61A65EB03055B084FEA32024FF424
:100D600080104FF4002CB6EB020E75EB030E22BF81
:100D7000B61A754640EA0C005B084FEA3202B6EB41
:100D8000020E75EB030E22BFB61A754640EA5C00F0
:100D90005B084FEA3202B6EB020E75EB030E22BF80
:100DA000B61A754640EA9C005B084FEA3202B6EB81
:100DB000020E75EB030E22BFB61A754640EADC0040
:100DC00055EA060E18D04FEA051545EA16754FEAA2
:100DD00006164FEAC30343EA52734FEAC2025FEAC0
:100DE0001C1CC0D111F4801F0BD141EA00014FF04F
:100DF00000004FF0004CB6E711F4801F04BF014320
:100E00000020B4F1FD0C88BFBCF5E06F3FF6AFAE3B
:100E1000B5EB030C04BFB6EB020C5FEA500C50F1CB
:100E2000000041EB045170BD0EF0004E4EEA11314E
:100E300014EB5C04C2BFD4EB0C0541EA045170BD55
:100E400041F480114FF0000E013C90E645EA060E99
:100E50008DE60CEA135594EA0C0F08BF95EA0C0FC7
:100E60003FF43BAF94EA0C0F0AD150EA01347FF40F
:100E700034AF95EA0C0F7FF425AF104619462CE7E6
:100E800095EA0C0F06D152EA03353FF4FDAE104649
:100E9000194622E750EA410618BF52EA43067FF49A
:100EA000C5AE50EA41047FF40DAF52EA43057FF42A
:100EB000EBAE12E7000000000000000000000000A0
:100EC0004FEA410212F5001215D211D56FF4787372
:100ED000B3EB625212D94FEAC12343F0004343EA15
:100EE000505311F0004F23FA02F018BF40427047F0
:100EF0004FF00000704750EA013005D111F000407A
:100F000008BF6FF0004070474FF00000704700BF0F
:100F10004FEA4102B2F1E04324BFB3F5001CDCF11B
:100F2000FE5C0DD901F0004C4FEAC0024CEA507053
:100F3000B2F1004F40EB830008BF20F00100704782
:100F400011F0804F21D113F13872BCBF01F0004085
:100F5000704741F480114FEA5252C2F11802C2F1B7
:100F6000200C10FA0CF320FA02F018BF40F0010038
:100F70004FEAC1234FEAD32303FA0CFC40EA0C00EA
:100F800023FA02F34FEA4303CCE77FEA625307D127
:100F900050EA01331EBF4FF0FE4040F4400070475E
:100FA00001F0004040F0FE4040F40000704700BFF8
:100FB000704700BFAFF30080AFF30080AFF3008055
:100FC000FEE700BFAFF30080AFF30080AFF3008017
:100FD00072B6374880F30988364B37491A684FF0A4
:100FE000404442F470021A600C600023E1EE103AB3
:100FF00006228B6082F31488BFF36F8F2F4B304A29
:1010000093420BD2D943114421F0030119444FF00C
:101010005532043B43F8042F8B42FBD1294B8342CA
:101020000CD229491A1D891A21F0030119444FF0E5
:101030005532043B43F8042F8B42FBD103F0F0FD03
:101040002249234B99420BD2C843184420F0030095
:10105000204C04300023E258CA5004338342FAD1B2
:101060001D4B1E4A93420AD2D943114421F0030179
:1010700019440022043B43F8042F8B42FBD1184D46
:10108000184CFFF795FFAC4204D254F8043B984744
:10109000AC42FAD3144D154CFFF77AF8AC4204D2A7
:1010A00054F8043B9847AC42FAD3FFF789FF00BFDE
:1010B0000008002088ED00E034EF00E00000002090
:1010C0000004002000040020030800200008002085
:1010D000080800209078000808080020B830002098
:1010E00088010008880100088801000888010008BC
:1010F000FEE700BFAFF30080AFF30080AFF30080E6
:1011000072B6FEE7AFF30080AFF30080AFF300806C
:1011100000F096F900F05CFC00F0AAF900DF00BFD7
:10112000EFF30982064BD2F8CC1059609968683108
:101130006832996082F30988002383F3118870472D
:1011400030EF00E0AFF30080AFF30080AFF300803A
:1011500008B50A4B0A4A002199600720DA6010217D
:1011600000F0BEF80A204FF4007100F0B9F80B202F
:101170008021BDE8084000F0B3B800BF00ED00E0FA
:101180000003FA05AFF30080AFF30080AFF30080F7
:10119000202383F311881A4B5B6813F4006322D079
:1011A000EFF30983A3F1680282F3098815494FF030
:1011B00080708A6943F84C0C92F8230009689268A1
:1011C000896898B1914294BF00220122A2B10E4ACF
:1011D00043F8502CF1EE10FA0C4A5168596641F070
:1011E00001015160704783F311887047914234BF09
:1011F00000220122002AEAD1054A43F8502CEBE7ED
:1012000000ED00E0C40D00201111000830EF00E0F7
:101210001C110008AFF30080AFF30080AFF3008033
:1012200008B500F07DF9202383F3118800F040F920
:1012300000F0B6F800F054F9002383F3118800F0B1
:101240008FF9BDE80840FFF7A3BF00BFAFF30080F0
:101250002DE9F04F2DED108AC1F80CD0D0F80CD04C
:10126000BDEC108ABDE8F08FAFF30080AFF30080D3
:1012700008B500F0FDF8002383F311882846A04745
:1012800000F0B6FC08BD00BFAFF30080AFF30080F4
:1012900020F0030202F1604202F56142F0B443091A
:1012A00000F00304D2F80053E400FF269B00A640A0
:1012B00003F1604325EA060503F561430127A140D8
:1012C00000F01F0007FA00F045EA0104C2F80043ED
:1012D000C3F88001F0BC1860704700BFAFF3008016
:1012E00020F0030303F1604303F56D4300F00300B6
:1012F00010B4C0009A69FF24844022EA04028140AD
:101300000A439A615DF8044B704700BFAFF3008059
:10131000024B034A9B699A61FEE700BFC40D00209F
:10132000B06B0008AFF30080AFF30080AFF3008034
:1013300030B583B0FFF70CFF00F002FA00F098F927
:1013400000F0DEFE00F024FF00F05AF940210E48C4
:101350000E4C00F04DFB01250D4BC36180F8205071
:10136000A06100F055F8002383F3118862B6A269EA
:1013700008499161084800932A46084B4FF4A4712C
:1013800000F0BEFB03B030BD08080020C40D0020F3
:1013900000040020306D00085808002011130008D8
:1013A000F8B500F0FDF8164B9B6993F8232012B1B5
:1013B000013A83F823205A6A124D01325A62EB68CF
:1013C0002C680133AC42EB6018D0A768013FA760DE
:1013D000A7B92368E668E7605D602B6000F080F8DD
:1013E000002383F311882069B047202383F31188F9
:1013F00000F05EF82C68A368002BEAD0F8BD00BFAF
:10140000C40D0020B40D0020AFF30080AFF30080C6
:10141000054B1B6813B9054B1B6823B1044B054AE8
:101420001A60FFF76DBE7047A0090020AC0D0020C8
:10143000B00D0020D06B0008AFF30080AFF3008048
:10144000074B1B6810B5074C0BB9236823B1064B3B
:10145000064A1A60FFF754FE0123236010BD00BF47
:10146000A0090020AC0D0020B00D0020D86B0008B2
:10147000094B1B6810B5094C2BB92368002B02DD02
:101480000023236010BD064B064A1A60FFF738FEA2
:101490000023236010BD00BFA0090020AC0D002078
:1014A000B00D0020E06B0008AFF30080AFF30080C8
:1014B000074B1B68002B10B5064C01DD236823B1D8
:1014C000054B064A1A60FFF71BFE0123236010BD7F
:1014D000A0090020AC0D0020B00D0020E86B000832
:1014E000094B1B68002B10B5084C05DD2368002B49
:1014F00002DD0023236010BD054B064A1A60FFF78A
:10150000FFFD0023236010BDA0090020AC0D0020CA
:10151000B00D0020F06B0008AFF30080AFF3008047
:1015200010B5202383F31188094C2368002B02DBBC
:10153000084A12682AB1084B084A1A60FFF7E0FD12
:10154000236801332360002383F3118810BD00BF9B
:10155000A0090020AC0D0020B00D0020F86B0008A1
:1015600010B5202383F31188094C2368002B02DD7A
:10157000084A12682AB1084B084A1A60FFF7C0FDF2
:101580002368013B2360002383F3118810BD00BF53
:10159000A0090020AC0D0020B00D0020006C000858
:1015A000064B1B68002B04DB054B1B68002B00DD82
:1015B0007047044B044A1A60FFF7A2BDA00900203F
:1015C000AC0D0020B00D0020086C0008AFF30080C7
:1015D000064B1B6823B9064B1B68002B00DD7047C8
:1015E000044B054A1A60FFF78BBD00BFA00900201D
:1015F000AC0D0020B00D0020106C0008AFF300808F
:10160000034A1346402143F8081B5360704700BF4C
:10161000A4090020AFF30080AFF30080AFF3008097
:101620000C4A0D495368896910B40C4CE4681C607D
:101630005960816A996090F820101973103302F58F
:1016400081618B4228BF02F1080353605DF8044BAF
:10165000704700BFA4090020C40D0020B40D002075
:10166000014B1860FFF74CBDB00D0020AFF30080B8
:10167000044B4FF0FF3100225B601B609960DA6021
:10168000704700BFB40D0020AFF30080AFF30080BF
:10169000F8B505460C4616461F46FFF781FFCDB14B
:1016A000C6B1BCB10D492F610B68EE609A689442D7
:1016B00004D91B68A41A9A68A242FAD35A686A60CD
:1016C0008B422B605D601560AC6002D09A68141B81
:1016D0009C60F8BD0248FFF7C3FFE3E7B40D0020AC
:1016E000206C0008AFF30080AFF30080AFF3008000
:1016F00010B50446FFF754FF84B1E36893B1236843
:101700000A4A934203D09968A2680A449A606268C0
:101710001360236800215A60E16010BD0448FFF7A0
:101720009FFFEAE70348FFF79BFFE8E7B40D0020BF
:10173000306C0008406C0008AFF30080AFF300800D
:10174000034B00225B601B605B611B619A6070470A
:10175000C40D0020AFF30080AFF30080AFF3008032
:1017600010B50446FFF71CFF94F820308BB10E2B08
:101770000FD00022A168094B84F820201B689A68CA
:101780008A42FBD25A686260236020465C60146023
:1017900010BD0348FFF764FFEBE700BFC40D002056
:1017A000606C0008AFF30080AFF30080AFF30080FF
:1017B00010B52023044683F31188FFF779FE94F8CF
:1017C00020300D2B11D8DFE803F016101007100B96
:1017D000101010101010100BA36A9A6801329A6052
:1017E00094E80C001A60226853604FF0FF33A36244
:1017F0002046FFF7B5FFFFF773FE002383F3118840
:1018000010BD00BFAFF30080AFF30080AFF30080E6
:1018100070B5114C0646FFF7DBFE2368A5691A6810
:1018200085F820601420012185F8230054602846A3
:1018300083F820102260A361FFF7F2FEEB69ADF19F
:101840006402934202D90548FFF70AFFA0692946BE
:10185000BDE87040FFF7FCBCC40D0020746C0008AC
:1018600070B50C4686B00646FFF7B2FE631C12D078
:101870000D4D0E4AAB69214601A8FFF709FF30461E
:10188000FFF7C6FF049B13B101A8FFF731FFAB6957
:10189000986A06B070BD044D3046FFF7B9FFAB69DA
:1018A000986A06B070BD00BFC40D0020B1170008D3
:1018B00070B5164D04460E46FFF78AFEA869A36868
:1018C0008268A662934213D9FFF74AFF01230646B6
:1018D00084F82030AC61FFF7A3FEF369ADF1640238
:1018E00093420AD820463146BDE87040FFF7B0BCAD
:1018F0002046BDE87040FFF733BF0548FFF7B0FE54
:1019000020463146BDE87040FFF7A2BCC40D002060
:10191000746C0008AFF30080AFF30080AFF3008079
:1019200070B5104C2368A5691A682260142101263D
:101930005460284683F8206085F82310A361FFF7E0
:101940000FFF2846FFF76CFEEB69ADF1640293428E
:1019500002D90548FFF784FEA0692946BDE870401A
:10196000FFF776BCC40D0020746C0008AFF3008054
:1019700070B5154E3268B5691368AC6833600120E4
:1019800000215E6082F820001346B26185F82010C5
:1019900000E01B689A68A242FBD85A686A602B6014
:1019A00028465D601560FFF73BFEEB69ADF1640210
:1019B000934202D90548FFF753FEB0692946BDE8B6
:1019C0007040FFF745BC00BFC40D0020746C0008D8
:1019D000044B9B6993F823300BB1FFF7C9BFFFF7A6
:1019E0009FBF00BFC40D0020AFF30080AFF30080A5
:1019F0002DE9F007144C416465694561002200F14E
:101A000030064FF0020A4FF014094FF0010800F1C0
:101A10004C0700F12C0C0461816080F820A060610B
:101A200080F8239080F8228080F821200264C2632D
:101A3000426282612861C76146630663C0F82CC0B8
:101A4000BDE8F007704700BFC40D0020AFF3008071
:101A50002DE9F04F044683B00D4617469846FFF730
:101A60009FFD14B1B5F59C7F38D21F48FFF7F8FDF4
:101A70001E4E0C987369A5F16401214404F12C02F7
:101A80000025E160019248644FF0020B4FF0140A08
:101A90004FF0010916480866C1F840806361A760ED
:101AA0002661676484F820B0746184F8215025644D
:101AB000E5636562A56184F823A084F822901C6127
:101AC000019BE36204F1300204F14C0C2046626396
:101AD0002263C4F81CC003B0BDE8F08F7F2FC4D8C8
:101AE000B8F1000FC4D1C0E7906C0008C40D00200D
:101AF00071120008AFF30080AFF30080AFF30080F5
:101B00002DE9F04F83B080460C9F894693469A4654
:101B100000F14C050446FF2604F8016BA542FBD1F9
:101B200008EB0904A54204D2552605F8016BA5422D
:101B3000FBD1202383F31188FFF782FC53465A46DA
:101B4000494600974046FFF783FF00210446FFF710
:101B5000AFFEFFF78DFC002383F31188204603B00E
:101B6000BDE8F08FAFF30080AFF30080AFF30080EB
:101B700010B5044610B90948FFF772FD202383F31E
:101B80001188FFF75DFC21460620FFF769FEFFF78D
:101B90006FFC002383F3118810BD00BFD06C0008D8
:101BA00038B5104B9C692546A06255F82C0FA84209
:101BB00006D00368E362FFF7D3FDE06AA842F8D1DC
:101BC00094F821309B0704D1636922691A61226964
:101BD00053610E20FFF71CFE0348BDE83840FFF7B5
:101BE0003FBD00BFC40D0020E06C0008AFF30080D3
:101BF00010B52023044683F31188FFF721FC20460B
:101C0000BDE81040FFF7CCBFAFF30080AFF300801A
:101C100038B504460D4628B1002903DB6460246012
:101C2000A56038BD0348FFF71BFD64602460A56014
:101C300038BD00BF506D0008AFF30080AFF30080E7
:101C400010B50446FFF7ACFCFCB1A3682268002B7A
:101C50000ADBA24203D00F48FFF702FDA36801335D
:101C6000002BA36006DD10BDA242F4D00133002B8F
:101C7000A360F8DC23681A6822600021546099622E
:101C80001846BDE81040FFF76BBD0348FFF7E8FCBE
:101C9000DBE700BF106E0008FC6D0008AFF30080AA
:101CA00010B5044620B1002364602460A36010BD19
:101CB0000148FFF7D5FCF6E7A06E0008AFF30080FF
:101CC00038B504460D46FFF76BFCC4B1E26B94F8DF
:101CD000203045EA0201082BE1630CD0092B00D02B
:101CE00038BDA36A19408B42FAD12046FFF738FD70
:101CF0000023836238BDA36A1942F6D138BD024879
:101D0000FFF7AEFCE2E700BF7C6F0008AFF3008096
:101D100070B505460E46FFF743FC65B12C68A54239
:101D200008D0201D0BC83343E360FFF7C9FF2468C8
:101D3000A542F6D170BD0248FFF792FCEEE700BF66
:101D4000906F0008AFF30080AFF30080AFF3008026
:101D500010B4024661B1094B9B69986244680D203A
:101D600083E81400536023605DF8044BFFF778BDEF
:101D70004FF0FF305DF8044B704700BFC40D0020EA
:101D800030B4029C046200250A4485600261406010
:101D9000006041618161C160C36130BC704700BFB8
:101DA00038B50446FFF7FCFB2068E3686361002256
:101DB000A042A260A3610AD06FF00105036823600E
:101DC0005C60FFF7CDFC85622068A042F6D138BD8B
:101DD00038B504460D46FFF7E3FBA26963699342F9
:101DE000A2681BD00132591CA26061611D7062693A
:101DF00023699A420BD22068A0420DD00368236069
:101E00005C60FFF7ADFC00238362184638BD206894
:101E1000E3686361A042F1D1002038BD002AE1D01F
:101E20006FF0030038BD00BFAFF30080AFF3008058
:101E3000F8B504460E46202383F31188FFF700FB14
:101E4000E36933B12046984703E0FFF781FF071E9F
:101E500018DBA56820463146002DF6D0A26921691D
:101E6000531C8B4205F1FF35A361A56028BFE368D1
:101E7000177828BFA361FFF7FBFA002383F31188CB
:101E80003846F8BDFFF7F4FA2B4683F3118838463D
:101E9000F8BD00BFAFF30080AFF30080AFF3008068
:101EA0002DE9F047044615460F461E46D0F81C8023
:101EB000002A3DD0202383F31188FFF7C1FA07EBF6
:101EC000050A4FF000090137B8F1000F05D0204690
:101ED000C04702E0FFF73CFF10BBA5682046314633
:101EE000002DF7D0A369013D5A1CA261A5601B78A3
:101EF00007F8013C2369A2699A4224BFE368A36101
:101F0000FFF7B6FA002383F31188574509F1010959
:101F10000BD0202383F31188FFF792FA0137D3E720
:101F2000FFF7A6FA2B4683F311884846BDE8F087F1
:101F30000148FFF795FBBDE7E06F0008AFF30080B5
:101F400030B4029C04628D180561406000608260BC
:101F500041618161C160C36130BC7047AFF30080F3
:101F600038B50446FFF71CFBE3682269206863610B
:101F7000D21AA042A361A2600AD06FF001050368E3
:101F800023605C60FFF7ECFB85622068A042F6D11D
:101F900038BD00BFAFF30080AFF30080AFF3008027
:101FA0002DE9F041202304468846164683F3118824
:101FB000FFF746FA03E0FFF7CBFE071E1DDBA5681F
:101FC00020463146002DF6D06369013D5A1C6261FE
:101FD000A56083F80080236962699A4224BFE368A0
:101FE0006361E3690BB120469847FFF741FA00238C
:101FF00083F311881846BDE8F081FFF739FA2B46C4
:1020000083F311883846BDE8F08100BFAFF300804C
:1020100038B50446FFF7C4FA6269A3699A42A26818
:1020200016D02169501C5A1CA060A2618A421D78FA
:102030000BD22068A04206D0036823605C60FFF7E3
:102040008FFB00238362284638BDE368A361F0E775
:10205000002AE6D06FF0020038BD00BFAFF3008069
:102060002DE9F84F044617460E469B46D0F81CA0B3
:10207000002A3AD0202383F31188FFF7E1F94FF0CB
:102080000009A56806F1010820466A1EFDB16369D2
:10209000A2605A1C626132781A70236962699A429E
:1020A00024BFE3686361BAF1000F00D0D047FFF7A7
:1020B000DFF9002383F31188013F09F1010911D0F1
:1020C000202383F31188FFF7BBF94646D9E7204662
:1020D0005946FFF73DFE0028D3D0FFF7C9F92B463C
:1020E00083F311884846BDE8F88F0248FFF7B8FA35
:1020F000C0E700BFF46F0008AFF30080AFF30080CB
:102100000548064A0649074B20F0070022F007025F
:1021100008601A60704700BFBF30002000A0002098
:10212000E40D0020E00D0020AFF30080AFF300804D
:1021300010B50446FFF734FA074A084913680968DE
:10214000E01D20F00700C91A88429DBFC01810602A
:102150001846002010BD00BFE40D0020E00D002057
:1021600010B52023044683F31188FFF769F9204650
:10217000FFF7DEFF0446FFF77BF9002383F31188A6
:10218000204610BDAFF30080AFF30080AFF30080B6
:10219000044B054A1A6003F1100000229A60DA60CD
:1021A000FFF77EBDE80D002061210008AFF300803D
:1021B00008B501F055F900F0DBFB0A4801F0E8FE34
:1021C00000F036F800F0BCF800F0E2F800F0F0F8AB
:1021D00000F03EF900F004FC00F06AFABDE80840A7
:1021E00002F026BDE0740008AFF30080AFF300807A
:1021F0000C494A68104482424B680CD29A4203D977
:102200000023002BF7D17047984294BF002301238D
:10221000002BF0D1F7E79A42F6D80123002BEAD140
:10222000F1E700BF001000E0AFF30080AFF30080E3
:1022300001F0BEB9AFF30080AFF30080AFF30080D0
:1022400000230122027043608360C3600361436125
:102250001830FFF725BD00BFAFF30080AFF300805B
:1022600038B504460D46B8B1202383F31188FFF733
:10227000E7F82378013B012B02D90948FFF7F0F971
:102280002046656001F0C4F902232370FFF7F0F8DF
:10229000002383F3118838BD0248FFF7E1F9E3E733
:1022A0002070000810700008AFF30080AFF30080CA
:1022B000F8B504460E4617461D46FFF771F9C4B13E
:1022C000BEB1B7B1012D01D0EB0712D42378022B98
:1022D00005D0043B012B02D90848FFF7C1F90323BD
:1022E000A760E560266123702046BDE8F84001F054
:1022F000F7B90348FFF7B4F9E8E700BF64700008D6
:102300004C700008AFF30080AFF30080AFF30080A3
:10231000F8B51C4607460E461546202383F3118860
:10232000FFF78EF82346384631462A46FFF7C0FFAE
:10233000FFF79EF8002383F31188F8BDAFF3008008
:1023400001F0F6BCAFF30080AFF30080AFF3008084
:1023500038B501230025044603704560294608303E
:10236000FFF756FC294604F11400FFF751FC04F175
:10237000200504F1240004F1280104F12C0204F1E9
:10238000300325626062A162E262236338BD00BF50
:1023900001F086BDAFF30080AFF30080AFF30080A3
:1023A0000122002302704360704700BFAFF300803A
:1023B00001F0DEBDAFF30080AFF30080AFF300802B
:1023C0000122002302704360704700BFAFF300801A
:1023D0000C30FFF765BD00BFAFF30080AFF30080A6
:1023E0000C304FF0FF33FFF75BBD00BFAFF3008051
:1023F0003030FFF735BE00BFAFF30080AFF3008091
:1024000030304FF0FF33FFF72BBE00BFAFF300803B
:102410000C30FFF70DBD00BFAFF30080AFF30080BD
:102420000C304FF0FF31FFF703BD00BFAFF300806A
:102430003030FFF7B5BD00BFAFF30080AFF30080D1
:1024400030304FF0FF32FFF7ABBD00BFAFF300807D
:1024500001F056BFAFF30080AFF30080AFF3008010
:1024600070B50E4B044682B040F8043B0126009440
:102470000B461546606004F1540104F10C0026720D
:102480001022FFF77DFC00942B4604F1300004F18C
:1024900064011022FFF754FD02B070BD8071000886
:1024A00038B504460D46B8B1202383F31188FEF7F2
:1024B000C7FF237A013B012B02D90948FFF7D0F867
:1024C0002946204601F054FF02232372FEF7D0FF75
:1024D000002383F3118838BD0248FFF7C1F8E3E712
:1024E0002C71000820710008AFF30080AFF300806A
:1024F00038B504460D46FFF753F8D4B163693BB1D4
:10250000294604F10C00FFF763FC00280BDB38BD03
:10251000201D0421FFF7FCFB294604F10C00FFF706
:1025200057FC0028F3DA201D8021BDE83840FFF772
:10253000EFBB0248FFF794F8E0E700BF58710008CE
:1025400070B5046AD4F854321A681178042900D09E
:1025500070BD217A0229FBD112891B7942FA03F35B
:1025600013F00105F4D1216CE36BA26BC91A8E1A2A
:10257000EED0FEF77DFF2B4683F31188D4F854226A
:1025800033461068117904F1300200F0B9FA2023C3
:1025900083F31188FEF754FFD4F85432BDE870403D
:1025A0001868197900F0DCBAAFF30080AFF300804F
:1025B000F8B5046AD4F8542213681978042900D0B5
:1025C000F8BD217A0229FBD15279598903EB8203A4
:1025D00041FA02F2DB6812F001075D8AF0D1E66988
:1025E000A2696369B61AF61AB542E9D8FEF740FF48
:1025F0003B4683F31188D4F85422B6FBF5F305FB70
:1026000003F31068517904F10C0200F069FA2023F9
:1026100083F31188FEF714FFD4F8543218685979FF
:10262000BDE8F84000F07CBAAFF30080AFF3008063
:102630000C30FFF735BC00BFAFF30080AFF3008074
:102640000C304FF0FF33FFF72BBC00BFAFF300801F
:102650003030FFF705BD00BFAFF30080AFF300805F
:1026600030304FF0FF33FFF7FBBC00BFAFF300800B
:102670000C30FFF7DDBB00BFAFF30080AFF300808D
:102680000C304FF0FF31FFF7D3BB00BFAFF300803A
:102690003030FFF785BC00BFAFF30080AFF30080A0
:1026A00030304FF0FF32FFF77BBC00BFAFF300804C
:1026B000704700BFAFF30080AFF30080AFF300803E
:1026C00010B503460E4A43F8042B82B0044601229B
:1026D000009004F15401436002720A4B0C304FF435
:1026E0008072FFF74DFB009404F1300004F5AA71ED
:1026F0004FF48072044BFFF723FC02B010BD00BF03
:10270000D0710008B125000841250008AFF3008012
:1027100070B50D4604460E6808B3202383F3118874
:10272000FEF78EFE237A013B012B02D90E48FEF7FD
:1027300097FF2A7906EB8202022394626A791132AA
:1027400046F82240AA7906EB8206B4622372C4F8E6
:102750005452FEF78DFE002383F3118870BD0348A9
:10276000FEF77EFFD9E700BFB0710008A071000836
:1027700070B5D0F8543200F10C06044630461D689E
:10278000FFF70EFB04F13000FFF7EAFB201D0121EB
:10279000FFF7BEFAD4F85432597905EB8103284685
:1027A000DB6832465B8A00F09BF9D4F85432284645
:1027B0005979BDE8704000F0B3B900BFAFF30080B5
:1027C00090F8743003F06003202B01D00020704794
:1027D00090F87530212B03D0222B09D0202BF5D176
:1027E000064B836607220023C266036701207047F9
:1027F00000238366C366036701207047000800203A
:10280000F8B500EB810306469C6A0D46CCB1202347
:1028100083F31188FEF74CFE0821201DFFF778FA9C
:10282000216CE26BA36B8A1AD71A18D106EB8503C9
:10283000DA6853695B682BB9FEF752FE002383F315
:102840001188F8BD128A013A12EA0307F4D1FEF7A3
:1028500047FE3B4683F3118804F1300207E0FEF7A0
:102860003FFE002383F3118804F130023B463046DB
:10287000294600F045F9202383F31188FEF718FE5E
:102880003046294600F06CF9D6E700BFAFF3008070
:1028900001F111032DE9F04150F823400D460646A1
:1028A000CCB1202383F31188FEF702FE201D042102
:1028B000FFF72EFA06EB8503E169D868A269636920
:1028C000478A8A1AC3EB0208474506D9FEF708FE75
:1028D000002383F31188BDE8F081FEF701FE002399
:1028E00083F31188B8FBF7F307FB03F304F10C0241
:1028F0003046294600F0F4F8202383F31188FEF7D0
:10290000D7FD3046294600F00BF9DFE7AFF3008032
:10291000704700BFAFF30080AFF30080AFF30080DB
:10292000014B5B6883607047001000E0AFF30080EC
:102930000B4B0C4A81685B6810B41468C2685B1A60
:102940001B1B9342836006D802695DF8044B9342D7
:1029500038BF03617047C3605DF8044B704700BF28
:10296000001000E0080E0020AFF30080AFF30080FD
:1029700010B586B00A4C0B4B0B4901934FF0FF305A
:1029800000230590236004934B68084A039301A831
:102990000292FFF7CDFF039B236006B010BD00BF7E
:1029A000080E002021290008001000E0312900084D
:1029B00010B5044690F8763080F87E3001F088FF3C
:1029C00063681B6813B120460121984703232370D5
:1029D00010BD00BFAFF30080AFF30080AFF3008005
:1029E00001F046BFAFF30080AFF30080AFF300808B
:1029F000012300210370416003460722013AD96296
:102A0000996403F10403F9D102814281704700BF48
:102A100038B504460D46F8B1F1B1202383F311888F
:102A2000FEF70EFD2378013B012B02D90C48FEF77F
:102A300017FE002365601946E2180433202BD1608D
:102A4000FAD1204601F01CFF02232370FEF710FD8F
:102A5000002383F3118838BD0248FEF701FEDCE74E
:102A60002072000810720008AFF30080AFF30080FE
:102A7000F8B504460E461546FEF792FD04B3FDB1C7
:102A80002378042B02D01048FEF7EAFD04EB8607FA
:102A9000FB6813B10D48FEF7E3FD686918B100212A
:102AA000102204F035F8A86918B10021142204F0AE
:102AB0002FF8FD6020463146BDE8F84001F018BF10
:102AC0000348FEF7CDFDDBE7647200088072000862
:102AD0004C720008AFF30080AFF30080AFF30080CA
:102AE00070B400EB81040126E468A4690025E2606B
:102AF00063602670A56070BC01F0D2BFAFF30080A8
:102B000070B400EB81040126E46864690025E2608A
:102B100063602670A56070BC01F0D2BFAFF3008087
:102B200070B504460D46FEF73BFD8CB1638943FA50
:102B300005F010F0010601D0012070BD0122AA406D
:102B4000134320466381294601F0FAFF304670BDE9
:102B50000148FEF785FDE9E7D4720008AFF3008075
:102B600070B504460D46FEF71BFD8CB1238943FA70
:102B700005F010F0010601D0012070BD0122AA402D
:102B8000134320462381294601F0EAFF304670BDF9
:102B90000148FEF765FDE9E7EC720008AFF300803D
:102BA0000022022101701346A0F87C2080F87E20CC
:102BB00080F87F20028142811146C2180433202B05
:102BC000D1604FF00002F8D180F8642001F008BF16
:102BD000F8B50023044680F8643000F1740201F077
:102BE0003FFF63689B68002B31D02046984770B345
:102BF000E56E94F8743094F87B1094F87A2042EAE9
:102C00000122AA423CBFE266154613F0800FE3683A
:102C100040F09780002D77D15B69052284F864200D
:102C200020461D70DD605D609D60294601F048FF13
:102C3000202383F31188FEF73BFC29462046FFF74B
:102C40008FFFFEF74DFC2B4683F31188F8BD94F8F7
:102C5000743013F0600711D02046002101F0A0FF6E
:102C60002046002101F08CFF63681B6813B12046E9
:102C700005219847062384F86430F8BD94F8756000
:102C800003F07F0242EA0626B6F5407F00F001819C
:102C900018DDB6F5C06F00F0E38040F38B80B6F529
:102CA000106F00F0958040F60242964200F0D1800D
:102CB000B6F5006FD0D104F17F0201252767A26627
:102CC000E56698E7022E00F0F48040F3B780B6F591
:102CD000807F00F09080B6F5817FBDD194F876209A
:102CE000002AB9D194F8782012F00F0107D012060B
:102CF000204600F1048101F063FF94F87430002550
:102D0000A566E566256776E79B69A26E0026042125
:102D100084F864102046DA605D601E709E60314663
:102D200001F0BEFE202383F31188FEF7C1FB31467C
:102D30002046FFF7F5FEFEF7D3FB334683F31188F9
:102D4000F8BDE5B15B69A26E0026012184F864102C
:102D50002046DA605D601E709E60314601F0B0FE74
:102D6000202383F31188FEF7A3FB31462046FFF7AB
:102D7000F7FEFEF7B5FB334683F31188F8BD9B6978
:102D8000032284F8642020461D70DD605D609D6034
:102D9000294601F085FE202383F31188FEF788FB86
:102DA00029462046FFF7BCFEFEF79AFB2B4683F32D
:102DB0001188F8BD40F2023296422CD0B6F5A06FD1
:102DC0007FF44AAF534AA766E7663D46226712E79B
:102DD00094F8762084F87F20002A40F08180032236
:102DE000227062681268002A89D02046022190472A
:102DF00094F8743083E794F87620012A7FF42CAF9E
:102E0000B4F87C20A76622F00202E76627673D46F9
:102E1000A4F87C20EFE694F87620002A7FF41CAF1B
:102E200094F8782012F00F013FF469AF13062046A2
:102E30006AD401F0A5FE94F8743060E736B904F165
:102E40007C0202252667A266E566D4E6012E7FF4A1
:102E500003AF314AA26602250022E5662267CAE670
:102E6000626894F8790094F87830556894F877108F
:102E700094F8762043EA00232046A84700283FF430
:102E8000EBAE43680568E566A366276794F874307F
:102E9000B1E694F87620012A7FF4DEAEB4F87C2007
:102EA000A76642F00202E76627673D46A4F87C2049
:102EB000A1E694F8781011F0800F204601F00F0180
:102EC00011D101F0ADFD012811D002287FF4C4AE6C
:102ED000124BA366E0662767054694F874308AE6CD
:102EE000042222707DE701F0ABFD0128EDD10C4BEF
:102EF000A366E6662767354694F874307BE601F0F2
:102F000077FE94F87430FAE601F04AFE94F87430D3
:102F1000F5E600BFB1290008F07100080072000852
:102F200040730008AFF30080AFF30080AFF3008080
:102F300038B590F86430022B044647D0052B3ED0BC
:102F4000012B10D0002101F02BFE2046002101F0C2
:102F500017FE63681B6813B12046052198470623B6
:102F600084F8643038BD90F87B2090F87A30C56ED4
:102F700043EA0223AB42C26805D9138AB5FBF3F1D9
:102F800003FB115525B393690025032284F86420BF
:102F900029461D70DD605D609D60204601F080FD6A
:102FA000202383F31188FEF783FA29462046FFF792
:102FB000B7FDFEF795FA2B4683F3118838BD036FF2
:102FC00003B19847002384F8643038BDC268DAE75B
:102FD000536929461D70DD605D609D6001F070FDE4
:102FE000202383F31188FEF763FA29462046FFF772
:102FF000B7FDFEF775FA2B4683F31188022384F898
:10300000643038BDAFF30080AFF30080AFF30080D1
:1030100038B590F86430032B04462FD0042B11D020
:103020002046002101F0BCFD2046002101F0A8FD52
:1030300063681B6813B1204605219847062384F86E
:10304000643038BDC3685B690025052280F86420C0
:1030500029461D70DD605D609D6001F031FD20231B
:1030600083F31188FEF724FA29462046FFF778FDFE
:10307000FEF736FA2B4683F3118838BDC3689B6987
:103080009B68002BCCD1036F03B19847002384F8D1
:10309000643038BDAFF30080AFF30080AFF3008041
:1030A00008B5FEF73DFA084B084A19680F2058602A
:1030B000136801400BB150689847FEF751FABDE81C
:1030C0000840FEF765B800BF000002400C0E00206B
:1030D00010B5FEF725FA084B084819688268F024F5
:1030E000C1F303115C600AB1C0689047FEF738FA7B
:1030F000BDE81040FEF74CB8000002400C0E002066
:1031000010B5FEF70DFA094B0948196802694FF42A
:103110007064C1F303215C600AB140699047FEF717
:103120001FFABDE81040FEF733B800BF00000240B0
:103130000C0E0020AFF30080AFF30080AFF30080EF
:1031400010B5FEF7EDF9094B0948196882694FF48B
:103150007044C1F303315C600AB1C0699047FEF767
:10316000FFF9BDE81040FEF713B800BF00000240B1
:103170000C0E0020AFF30080AFF30080AFF30080AF
:1031800010B5FEF7CDF9094B09481968026A4FF4EA
:103190007024C1F303415C600AB1406A9047FEF7B6
:1031A000DFF9BDE81040FDF7F3BF00BF00000240AB
:1031B0000C0E0020AFF30080AFF30080AFF300806F
:1031C00010B5FEF7ADF9094B09481968826A4FF44A
:1031D0007004C1F303515C600AB1C06A9047FEF706
:1031E000BFF9BDE81040FDF7D3BF00BF00000240AB
:1031F0000C0E0020AFF30080AFF30080AFF300802F
:1032000010B5FEF78DF9094B09481968026B4FF0AC
:103210007064C1F303615C600AB1406B9047FEF7D4
:103220009FF9BDE81040FDF7B3BF00BF00000240AA
:103230000C0E0020AFF30080AFF30080AFF30080EE
:1032400010B5FEF76DF9084B08481968826B0F241A
:1032500021405C600AB1C06B9047FEF781F9BDE880
:103260001040FDF795BF00BF000402400C0E002087
:1032700010B5FEF755F9084B08481968026CF024A0
:10328000C1F303115C600AB1406C9047FEF768F926
:10329000BDE81040FDF77CBF000402400C0E00208A
:1032A00010B5FEF73DF9094B09481968826C4FF4D7
:1032B0007064C1F303215C600AB1C06C9047FEF7F3
:1032C0004FF9BDE81040FDF763BF00BF00040240A6
:1032D0000C0E0020AFF30080AFF30080AFF300804E
:1032E00010B5FEF71DF9094B09481968026D4FF436
:1032F0007044C1F303315C600AB1406D9047FEF742
:103300002FF9BDE81040FDF743BF00BF00040240A5
:103310000C0E0020AFF30080AFF30080AFF300800D
:1033200010B5FEF7FDF8094B09481968826D4FF496
:103330007024C1F303415C600AB1C06D9047FEF791
:103340000FF9BDE81040FDF723BF00BF00040240A5
:103350000C0E0020AFF30080AFF30080AFF30080CD
:103360000B4B30B400220B4D0B4C1A601146134628
:10337000E8580C33902B0160A15002F10802F7D1FC
:103380000649074A4FF0FF334B6030BC536070472B
:103390006C0E0020A07300080C0E002000000240FC
:1033A00000040240AFF30080AFF30080AFF3008071
:1033B0002DE9F041044684B000283AD0224E657AC7
:1033C0003768012000FA05FC1CEA070F2AD11F48C4
:1033D00000EBC5084CEA070740F83520C8F8043070
:1033E0007B06376004D01A4B586940F001005861E1
:1033F00017F4786F04D0164B586940F002005861FA
:10340000236860681D6825F00F051D60257A0F266A
:10341000AE40002506601D603AB1A07A0901FDF7B3
:1034200037FF284604B0BDE8F081104604B0BDE87F
:10343000F0810848039102920193FEF711F9019B74
:10344000029A0399BAE700BF6C0E00200C0E002010
:103450000010024050730008AFF30080AFF300800B
:10346000F8B5244B24491A69244DDFF8A0E0244C18
:10347000244800224FF0FF361E6107271A61D3F857
:103480000CC0DE60DA60C1F804E08A600F60E968B1
:1034900041F08071E960216841F001012160D96942
:1034A00041F08051D961016841F480710160196A6D
:1034B00001F44071B1F5007F03D04FF480311962FF
:1034C0001A620C4B1A6A120407D41A6A42F4007288
:1034D0001A621A6A42F400421A62FFF741FF054A73
:1034E000094B916941F0010191611A6842F0200293
:1034F0001A60F8BD0010024010E000E0F0ED00E0BE
:10350000001000E000700040000001403F19010081
:1035100021490B6843F001030B600B681E4A9807B2
:10352000FBD51168002301F0F901116011465360C9
:103530004B68194A13F00C0FFAD1136843F4A02317
:10354000136011460B68144A9B03FBD5536A43F082
:103550000103536211464B6A0F4A9807FBD50F4B84
:1035600053604FF480713023D1621363136843F0CA
:1035700080731360136808499B01FBD5084B122226
:103580001A604B6843F002034B604B6803F00C0376
:10359000082BFAD1704700BF0010024000241D0024
:1035A00000200240AFF30080AFF30080AFF3008053
:1035B000F8B5114D114C124E2846FEF741FE114B45
:1035C000AB6242F28A574FF0A04350211220EB62C7
:1035D0002E636F63FDF75CFE2046FEF731FE8436F6
:1035E000094B0A4A67632663A262E3622F205021D7
:1035F000BDE8F840FDF74CBE700E0020A80E00207C
:10360000A0730008000300500004005000070050A1
:10361000F8B50378012B044600D0F8BD294B984239
:103620003AD0294B98422AD0226BE36A1068A56AE7
:1036300003F140074FF0805200214FF4803687603D
:10364000AE604FF4347099609A60FEF7D1FDE26A83
:103650009368B3F1805F03D01C48FEF701F8E26A7B
:10366000936843F0004393609368002BFCDB9368FE
:1036700043F0010393601368DB07FCD5F8BD006BD2
:10368000134A05212346FFF793FE90B9114B5A695F
:1036900042F000525A61C7E7006B0D4A05212346EC
:1036A000FFF786FE48B90B4B5A6942F080525A61C7
:1036B000BAE70948FDF7D4FFE8E70848FDF7D0FF6F
:1036C000F1E700BF700E0020A80E0020587400081B
:1036D000913900080010024044740008307400085A
:1036E0002DE9F00F816A02698F68D4681678436B00
:1036F00082B007F470380191516944F4005448EAEB
:103700000108002E3CD144F00104C768016B5688C3
:1037100009688568CD60012F88BF43F0040307FB6B
:1037200006F74F600B60D1F800A0C36AD2F820B052
:10373000D2F81090D2F818C0D769506A4AF0010A3E
:10374000C1F800A00199C1F808801D68916AD26A89
:103750001D60013E902546EA0B065D60C3F820908F
:10376000C3F814C09F611E6358639963DA63DC6019
:103770009A6842F004029A6002B0BDE8F00F704708
:1037800044F0030443F02003BFE700BFAFF3008021
:10379000036B1A68596830B4156825F00F05156079
:1037A0001B7A0F2404FA03F30B60C26A936859076B
:1037B00006D5936843F0100393609368DB06FCD44E
:1037C00030BC7047AFF30080AFF30080AFF30080F0
:1037D000036970B504460D463BB1CE0606D42906F2
:1037E0002FD4EA0554D4AB0579D470BD036B1B68A4
:1037F0005B68002BF3D0FFF7CBFF23699B684BB1CD
:10380000052222702046012198472378052B04BF0A
:103810000223237000262661202383F31188FDF7FD
:1038200047FE636933B14FF0FF32666118469A6212
:10383000FDF796FFFDF754FE002383F31188290658
:10384000CFD52046FFF7A4FF23699B684BB1052223
:1038500022702046022198472378052B04BF0223BB
:10386000237000262661202383F31188FDF720FEB4
:10387000636933B14FF0FF32666118469A62FDF713
:103880006FFFFDF72DFE002383F31188EA05AAD50B
:103890002046FFF77DFF23699B684BB1052222700C
:1038A0002046032198472378052B04BF0223237069
:1038B00000262661202383F31188FDF7F9FD636953
:1038C00033B14FF0FF32666118469A62FDF748FF48
:1038D000FDF706FE002383F31188AB0585D520464E
:1038E000FFF756FF23699B684BB1052222702046E3
:1038F000042198472378052B04BF02232370002559
:103900002561202383F31188FDF7D2FD636933B16C
:103910004FF0FF32656118469A62FDF721FFFDF70F
:10392000DFFD002383F3118870BD00BFAFF300807B
:1039300008B5FDF7F5FD4FF0A0430548196819607B
:10394000FFF746FFFDF70CFEBDE80840FDF720BC81
:10395000700E0020AFF30080AFF30080AFF3008063
:1039600008B5FDF7DDFD064B064819681960FFF73D
:103970002FFFFDF7F5FDBDE80840FDF709BC00BFCE
:1039800000040050A80E0020AFF30080AFF30080C9
:1039900038B50D462907044620D40369002B41D0D1
:1039A0006A0705D55B681BB1C268816852089847F1
:1039B000AB0737D523691A78002A38D05D68002D07
:1039C00030D0E268012A2ED95988A368520801FB39
:1039D00002F103EB41012046A84738BDFFF7D8FEAE
:1039E00023699B684BB1052222702046002198472D
:1039F0002378052B04BF0223237000252561202393
:103A000083F31188FDF754FD636933B14FF0FF3242
:103A1000656118469A62FDF7A3FEFDF761FD00237C
:103A200083F3118838BD2046A168A84738BD2046D9
:103A3000FFF7AEFE21694B68FBB1E2680420012A62
:103A400020701FD94888A168520800FB02F001EBE2
:103A50004001204698472378042B0ED0202383F37F
:103A60001188FDF725FD6369002BD6D00022626125
:103A700018469A62FDF774FECFE7022200232270F7
:103A80002361EBE72046A1689847E4E7AFF30080A5
:103A9000F0B4444C444BE56945F00075E561D3F85A
:103AA0000042240C240444F0010444EA0024C3F836
:103AB000004200295BD00025C3F81C522846C3F8F9
:103AC00004522C46C3F80C52C3F81452C30003F13D
:103AD000804303F5C84301300E28C3F84042C3F8C1
:103AE0004442F3D1304B0026012715681479E800D1
:103AF00000F1804014F0010F00F5C84006F1010606
:103B000007FA05F505D0D3F804422C43C3F8044264
:103B1000147914F0020F05D0D3F80C422C43C3F8EB
:103B20000C421479640704D5D3F814422C43C3F82B
:103B300014429468C0F84042D468C0F84442D3F8B4
:103B40001C028E4245EA000502F11002C3F81C5225
:103B5000CBD1154A134BD2F8001221F00101C2F863
:103B60000012DA6922F00072DA61F0BC7047C2001C
:103B7000012402F1804202F5C84204FA00F0204319
:103B8000C3F84012C3F84412C2F84012C2F84412FB
:103B9000C3F80412C3F81412C3F80C02C3F81C02D1
:103BA000D7E700BF0010024000640040AFF3008080
:103BB00010B5114CFDF7B4FC636B104A9A602023DA
:103BC00083F31188FDF774FC2369002B05DA0C4898
:103BD000FEF736F82369002BF9DB0A480121FEF7CE
:103BE00097F8FDF77DFC002383F31188FDF7B8FCFF
:103BF000BDE81040FDF7CCBAE00E00200101010045
:103C0000E80E0020040F0020AFF30080AFF3008027
:103C100038B51E4CFDF784FC636B1D69AA0718D1EB
:103C2000EB0610D5636B10241C61202383F31188ED
:103C3000FDF73EFC21461648FEF76AF8FDF750FCFA
:103C4000002383F31188FDF78BFCBDE83840FDF7B6
:103C50009FBA5A6922F010025A61202383F3118817
:103C6000FDF726FCE369002B05DA0A48FDF7E8FFBB
:103C7000E369002BF9DB08480221FEF749F8FDF75C
:103C80002FFC002383F31188CAE700BFE00E002059
:103C9000080F0020F40E0020000F0020AFF300807A
:103CA00038B5214CFDF73CFC626B55681C23290795
:103CB000536023D46B071BD5636B9C699A6904F02E
:103CC000070522F0700214F0700F9A6118BF45F0DA
:103CD0000805202383F31188FDF7EAFB45EA044138
:103CE0001248FEF715F8FDF7FBFB002383F311885C
:103CF000FDF736FCBDE83840FDF74ABA11680323EA
:103D000021F0020123702023116083F31188FDF755
:103D1000CFFB04F130000021FDF7FAFFFDF7E0FBD7
:103D2000002383F31188C5E7E00E0020080F002070
:103D300010B5064C2046FEF70BFB0021044B6363D5
:103D40000A460E20BDE81040FFF7A2BEE00E00209C
:103D500000640040AFF30080AFF30080AFF3008059
:103D6000C368426870B51E8A9D89117DADB2354029
:103D7000EE43B6B204461E8289B9AE0706D5037873
:103D80000421032B017001D0D368984768071BD426
:103D9000EB0703D5636820461B69984770BDA907E8
:103DA0000BD46A07F4D523780422032B2270EFD0BA
:103DB00063682046DB689847EAE70521936801704D
:103DC00098476A07E4D5EEE7636805229B6822708E
:103DD00020469847DCE700BFAFF30080AFF30080D8
:103DE00008B5FDF79DFB0448FFF7BAFFFDF7B8FBE8
:103DF000BDE80840FDF7CCB9600F0020AFF30080AC
:103E000008B5FDF78DFB0448FFF7AAFFFDF7A8FBF7
:103E1000BDE80840FDF7BCB9600F0020AFF300809B
:103E200008B5FDF77DFB0448FFF79AFFFDF798FB07
:103E3000BDE80840FDF7ACB9180F0020AFF30080D3
:103E400008B5FDF76DFB0448FFF78AFFFDF788FB17
:103E5000BDE80840FDF79CB9300F0020AFF30080AB
:103E600008B5FDF75DFB0448FFF77AFFFDF778FB27
:103E7000BDE80840FDF78CB9480F0020AFF3008083
:103E800008B5FDF74DFB0448FFF76AFFFDF768FB37
:103E9000BDE80840FDF77CB9480F0020AFF3008073
:103EA000F8B50C4F0C4E0D4D0D4C3846FEF778FA18
:103EB0000C4BFB603046FEF773FA0B4BF360284661
:103EC000FEF76EFA094BEB602046FEF769FA084BE5
:103ED000E360F8BD600F0020180F0020300F0020B5
:103EE000480F0020002C0140000400400008004062
:103EF00000340140AFF30080AFF30080AFF30080E7
:103F000038B5194DFDF70CFB2B691A8A9C89A4B2B0
:103F10001440E24392B21A82A30720D4600719D456
:103F2000210712D4E2060BD4E30703D56B680E48D1
:103F30009B689847FDF714FBBDE83840FDF728B9AA
:103F40006B6809489B6A9847EEE76B6806481B6AEE
:103F50009847E7E76B6804489B699847E0E76B6818
:103F600028461B699847D9E7780F0020AFF30080F7
:103F700010B5044C2046FEF723FA4FF0804323612E
:103F800010BD00BF780F0020AFF30080AFF30080BA
:103F9000F0B4364E364D7769364C3749374A384B90
:103FA00047F4FC0777614FF0904647687760876871
:103FB000B760C768F76007697761476937628769E3
:103FC000776207683760066A6E60466AAE60866A26
:103FD000EE60C66A6E61066B2E62466B6E62C669E3
:103FE0002E60C56B6560056CA560456CE560856CF1
:103FF0006561C56C2562056D6562856B2560846DA4
:104000004C60C46D8C60046ECC60446E4C61846EF8
:104010000C62C46E4C62446D0C60416F5160816FE4
:104020009160C16FD160D0F880105161D0F88410D8
:104030001162D0F888105162016F1160D0F89020A1
:104040005A60D0F894209A60D0F89820DA60D0F8BE
:104050009C205A61D0F8A0201A62D0F8A4205A629D
:10406000D0F88C201A60F0BC704700BF00100240EE
:104070000004004800080048000C004800100048F8
:1040800000140048AFF30080AFF30080AFF300806E
:104090002DE9F00F002302F00307C2F38006C2F3FC
:1040A000C105C2F341144FF00F09C2F3C3124FF020
:1040B000010A38E0D0F820B02BEA0C0C4CEA0808D2
:1040C000C0F82080D0F804C00AFA03F82CEA080CE3
:1040D0004CEA060CC0F804C04FF0030B4FEA430C47
:1040E000D0F808800BFA0CFC6FEA0C0C0CEA0808FC
:1040F00048EA0508C0F80880D0F80C800CEA0808E7
:1041000048EA0408C0F80C80D0F800800CEA080CDB
:104110004CEA070CC0F800C049081AD07600AD0080
:10412000A400BF00013303F0070C4FEA8C0C11F020
:10413000010F02FA0CF809FA0CFCEDD0072BB9D9E3
:10414000D0F824B02BEA0C0C4CEA0808C0F8248004
:10415000B8E7BDE8F00F7047AFF30080AFF3008021
:10416000024B1A6842F080021A6070470038014022
:10417000024B1A6842F080021A6070470044004007
:10418000024B1A6842F080021A60704700480040F3
:104190002DE9F041456F2F68EC692C622307064634
:1041A0003CD1E3052AD4A00618D4390601D522064D
:1041B00056D4630610D5202383F31188FDF778F9D0
:1041C000301D1021FDF7A4FDFDF78AF9002383F3CC
:1041D000118827F040072F60BDE8F081202383F38A
:1041E0001188FDF765F9A98C3046C9B2FEF780F950
:1041F000FDF776F9002383F31188D6E7202383F3B4
:104200001188FDF755F9301D4FF40071FDF780FD61
:10421000FDF766F9002383F31188C4E714F0080F53
:1042200014BF4FF080084FF00008E00748BF48F087
:104230002008A10748BF48F04008620748BF48F47B
:104240008078202383F31188FDF732F94146301D31
:10425000FDF75EFDFDF744F9002383F31188A0E725
:10426000202383F31188FDF723F906F13000FDF7D1
:10427000CFFE002807DB80B22885FDF731F9002347
:1042800083F3118895E7301D0821FDF741FD27F0E4
:10429000C00343F040032B60EFE700BFAFF30080A3
:1042A00008B5FDF73DF90448FFF772FFFDF758F92F
:1042B000BDE80840FCF76CBF8C0F0020AFF3008016
:1042C00008B5FDF72DF90448FFF762FFFDF748F93F
:1042D000BDE80840FCF75CBF08100020AFF3008089
:1042E00008B5FDF71DF90448FFF752FFFDF738F94F
:1042F000BDE80840FCF74CBF84100020AFF30080FD
:10430000F8B50E4F0E4E0F4D0F4A104C3846002197
:10431000FEF7A6F80E4B0F4A7B6730460021BC67BC
:10432000FEF79EF80C4B0D4A736728460021B467D0
:10433000FEF796F80A4BAC676B67F8BD8C0F002050
:10434000081000208410002061410008005125025F
:1043500000380140714100080044004081410008DC
:1043600000480040AFF30080AFF30080AFF300805F
:10437000F8B5254D037A002918BF0D46012B0446D8
:104380001BD0AA88E988A76F28892E68636F42F43A
:10439000967241F04004B7FBF6F540F0010042F0A0
:1043A0000102ADB2A4B280B292B24FF0FF319D8152
:1043B0005C6098601A601962F8BD144B98420FD087
:1043C000134B984216D0134B9842DAD1124BDA694C
:1043D00042F48022DA612720C021FCF759FFD0E7A0
:1043E0000D4B9A6942F480429A612520C021FCF766
:1043F0004FFFC6E7084BDA6942F40032DA61262043
:10440000C021FCF745FFBCE7707400088C0F00204A
:10441000081000208410002000100240AFF300803C
:10442000036803F1005C2DE9F0410CF5405C93B2A8
:104430005FEA52080C464FEA4C0C838018D00E6994
:1044400065464146A069431C9E42A36198BFE3684C
:104450000778581CA0611B7886429CBFE068A06169
:1044600047EA0323013945F8043BEBD10CEB880CF8
:10447000D3070BD5A16920694B1CA361834209783E
:1044800028BFE368CCF8001028BFA361202383F382
:104490001188A36820680C4E1A440121A042A26032
:1044A000316018BF002508D0036823605C60FDF709
:1044B00057F985622068A042F6D10023336083F368
:1044C0001188BDE8F08100BFAC0D0020AFF3008083
:1044D00008B5FDF725F8FDF743F8BDE80840FCF7FF
:1044E00057BE00BFAFF30080AFF30080AFF3008092
:1044F0002DE9F04F83B0FDF713F8924B5E6C710518
:1045000000F19F81320511D5DFF83CB28D4BDBF80D
:104510000420196C126841F00801196412B1584660
:1045200003219047874B6FF400625A64F30408D567
:10453000844B9A6C170440F17481824B6FF4805263
:104540005A64B5050BD5DFF800B2DBF80430DB6840
:104550000BB1584698477B4B6FF400725A64340491
:1045600040F1BF80DFF8E0B106F00F064FEA8609A0
:1045700009F1804505F5B84506F102082C680BEBFA
:10458000880320065F685BD52B686E48796923F441
:10459000F14323F070032B60026D8B68486802F1D1
:1045A000005202F540524FEAC60E72445200B2F871
:1045B00004C01FFA8CFC63448B60C31A00F0B38004
:1045C0003A8A0878934238BF1A46002840F01C8186
:1045D000C8686044C8605B490B6D03F1005303F584
:1045E000405373445B001FFA82FE1968A3F804E08D
:1045F00001F10051531C01F540515B084FEA4101A4
:1046000006D0821E32F8020F41F8040B013BF9D1AB
:10461000202383F3118809F1804909F5B849FCF793
:1046200047FFD9F8003023F4F04323F0400383F030
:104630003003C9F80030FCF753FF002383F31188DF
:10464000210447D52B6823F4784323F07003220517
:104650002B605FD43B48BC69036D227803F10053A3
:1046600003F5405303EBC6035B00B3F80CE01FFAFD
:104670008EFECEF30909002A68D19968E26801F13B
:10468000005109F1010301F540515B084FEA410176
:1046900006D051F8040B22F8020B013BF9D1E26875
:1046A0004A44E26023461A8A7C8A98685968013A2B
:1046B00092B24844C9EB0101A1451A829860596041
:1046C00016D3AAB12B6823F4904323F0700383F42C
:1046D00040532B60DFF86CE0DEF8446033043FF5B4
:1046E00043AFFCF73DFF03B0BDE8F04FFCF750BD12
:1046F0000BEB8808BBF80A20D8F804301248DB68B6
:10470000012404FA06F122EA0102ABF80A2031463C
:104710009847DFE70BEB88083146D8F804300A48A1
:104720005B689847D6E7084B07481A89BB684FF083
:10473000010E0EFA06F122EA010202813146984783
:104740007EE700BF005C0040001100209B68E46829
:1047500003F1005303F540535B005FEA59010093F6
:10476000019121D000980B46626950F8041B02F1B8
:10477000010AC4F814A0117022694FEA112C616972
:10478000914228BFE1684A1C626181F800C0226939
:104790006169914224BFE2686261013BE4D19DE816
:1047A0000C0002EB830200921EF0010F0DD0636932
:1047B000DDF800E0591CDEF8002061611A70236901
:1047C00062699A4224BFE3686361202383F31188FE
:1047D000FCF76EFEA36820684B44A042A36018BF9C
:1047E0004FF0000A09D0036823605C60FCF7B8FF53
:1047F000C0F828A02068A042F5D1FCF771FE002384
:1048000083F31188BB694EE71648C968036D03F14D
:10481000005303F5405303EB0E004000FFF700FE8A
:10482000F6E6DFF844B0196CDBF80420126821F0DA
:1048300008011964002A3FF480AE584604219047CD
:104840007BE6DFF824B05846FEF7AAF9DBF804301F
:104850001B6813B1584600219847024B6FF48062E1
:104860005A644FE6005C004000110020AFF3008066
:104870000148FEF7BDB800BF00110020AFF3008073
:1048800038B50378012B044600D038BD0C4A90425D
:1048900004D02046BDE83840FEF782B9094A0A4DE7
:1048A000D16941F40001D1614A202B64D021FCF789
:1048B000EFFC4B20E021FCF7EBFC00232B64E8E746
:1048C0000011002000100240005C0040AFF30080A7
:1048D00090F87E20024B42F08002DA64704700BFFD
:1048E000005C0040AFF30080AFF30080AFF30080C6
:1048F00000EB81032DE9F041DC68236803F003033A
:10490000013B022B9CBF314A32F81330A2680546A6
:1049100088BF4FF400730AB143F02003E2680AB184
:1049200043F400538A0002F1804243EA010002F599
:10493000B84220F4F04020F0700010601668678ADA
:1049400047F67000184070403E2F106007F1FF32AC
:104950002DD942F01F02013252116FEAC2626FEA92
:10496000524292B21A4BD5F880801E6D238A06F10E
:10497000005606F5405606EBC1067600434400217A
:10498000B3F5007FB180B281C5F8803018D8C6F881
:104990000080D5F880402744B7F5007FC5F88070C7
:1049A00002D90C48FCF75CFEB460BDE8F08142F02F
:1049B0000102013202EBD272520202F47C42D1E7D0
:1049C0000448FCF74DFE678AE1E700BFA0740008C9
:1049D000005C004080740008AFF30080AFF30080FB
:1049E00041680D4BC968F0B400294FF000040B4D2D
:1049F0001C6514BF4FF41E474FF41C4740264FF070
:104A0000800C5C642146C3F84CC01F64C0F8806011
:104A1000C560F0BCFFF76CBF005C0040B0740008DC
:104A2000054B53F8210010F4405004D0B0F5805FDE
:104A30000CBF012002207047005C0040AFF30080F3
:104A4000054B53F8210010F0300003D010280CBFA4
:104A500001200220704700BF005C0040AFF30080DF
:104A60000B4B1B6D03F1005303F5405303EBC101E6
:104A70004B0002F108009B6803F1005303F540531B
:104A80005B0053F8041B22F8021B8242F9D17047E5
:104A9000005C0040AFF30080AFF30080AFF3008014
:104AA00000EB8101C9688B695A6832B1498A013AC1
:104AB0000A44B2FBF1F11982704701221A82704751
:104AC00000EB810010B4C36858691A8A43680C4629
:104AD00001789A4228BF1A46164BF1B9C168186D81
:104AE00000F1005000F5405000EBC404640093B2A4
:104AF0002068A38000F10050531C00F540505B0873
:104B00004FEA400206D0023931F8020F42F8040B96
:104B1000013BF9D15DF8044B70471B6DC16803F18F
:104B2000005303F5405303EBC40040005DF8044B11
:104B3000FFF776BC005C0040AFF30080AFF300806D
:104B4000890001F1804101F5B8410B6823F49043DD
:104B500023F0700383F440530B607047AFF3008081
:104B6000890001F1804101F5B8410B6823F4F0435D
:104B700023F0400383F030030B607047AFF30080F5
:104B8000890001F1804101F5B8410B6823F490439D
:104B900023F0700383F480530B607047AFF3008001
:104BA000890001F1804101F5B8410B6823F4F0431D
:104BB00023F0400383F010030B607047AFF30080D5
:104BC000890001F1804101F5B8410B6803F44053BD
:104BD000B3F5405F07D00B6823F4F04323F04003A4
:104BE00083F400530B607047AFF30080AFF3008095
:104BF000890001F1804101F5B8410B6803F03003F1
:104C0000302B07D00B6823F4F04323F0400383F0EC
:104C100020030B60704700BFAFF30080AFF300804C
:104C2000FEF776BCAFF30080AFF30080AFF30080F7
:104C3000704700BFAFF30080AFF30080AFF3008098
:104C4000F0B4002B08BF0B46471D051DB1FBF2F663
:104C500002FB161101F13004392CC8BF01F13704F1
:104C6000E4B2B3FBF2F331462E4605F80149002BBE
:104C7000ECD1BA1B3346024401E013F8014F00F8AF
:104C8000014B9042F9D1F0BC704700BFAFF30080F8
:104C90002DE9F04F2DED028B89B005460C461746E5
:104CA0000DF1140B2178631C51B125290DD02A6810
:104CB0001C469268284690472178631C0029F4D14D
:104CC00009B0BDEC028BBDE8F08F62782D2A03BFDE
:104CD000A278A31C4FF0010C4FF0000C2E2A00F01C
:104CE0003781302A00F034814FF020081C4600261E
:104CF00006E03B78043706EB8606227803EB46068F
:104D0000A2F13003DBB2092B04F10104F3D92A2A02
:104D1000EFD02E2A4FF0000145D002F0DF034C2BDC
:104D20004ED0A2F14403342B00F20881DFE813F0E7
:104D3000FE000601060106010601FE00060106014D
:104D4000060106010601FC00060106010601060136
:104D500006014E00060106018B0006010601060150
:104D60000601060106010601060106010601EE0024
:104D7000FE000601AF0006010601FE000601060165
:104D8000060106010601FC000601060106018D0070
:104D900006014E00060106018B003B78043701EB4B
:104DA000810103EB410114F8012BA2F13003DBB2C6
:104DB000092BF4D92A2AF0D002F0DF034C2BB0D112
:104DC0002378002BADD001341A46AAE70A223968AD
:104DD000584604370023CDF804C0FFF731FFDDF853
:104DE00004C0CBEB000000F1FF3AD946361A26EAA0
:104DF000E676BCF1000F0DD176425EB199F8001055
:104E00002D2900F0AA802B6828469B6841469847C8
:104E10000136F8D1BAF1000F0ADBCA4409F1FF39B3
:104E20002B6819F8011F9B6828469847D145F7D190
:104E3000002E3FF437AF2B6828469B6841469847C1
:104E4000013EF8D12EE71022C1E7D7F80090574B6A
:104E5000B9F1000F08BF994647F6FF7399F80000B3
:104E60000437002908BF1946002800F099804944FA
:104E70004B4601E08B427DD05A780133002AF9D1AC
:104E8000C9EB030000F1FF3A4FF02008AEE7073707
:104E900027F00707D7E90001CDF804C0FCF738F880
:104EA00008EE100AB5EEC08AF1EE10FA07F1080715
:104EB000DDF804C06CD45846FDEEC87A0A2217EE1D
:104EC000901A002317EE90AACDF804C0FFF7B8FEA1
:104ED00081462E2309F8013B18EE100AFBF784FDEA
:104EE000CDE902015046FBF76DFD02460B46DDE9B8
:104EF0000201FBF719FC00222D4BFBF7C9FDFBF764
:104F0000DFFF0A2201466423484666E70DF11500DB
:104F10003B688DF81430CBEB000000F1FF3A04370A
:104F20004FF02008D94661E7082250E73968002988
:104F300007F1040725DB58460A224BE70DF115005F
:104F4000CBEB00008DF8142000F1FF3AD9464DE775
:104F50005A784FF030080133C8E6B8F1300F7FF4CB
:104F600052AF2B6828469B68984709F101090AF15E
:104F7000FF3A48E7C9EB010000F1FF3A4FF0200883
:104F800034E72D2349428DF814300DF11500D3E795
:104F90002D23B1EE488A8DF814300DF115008BE702
:104FA0004FF0FF3A4FF0200820E700BF907500084F
:104FB00000408F40AFF30080AFF30080AFF300807C
:104FC000022906D0032906D00748012918BF00206E
:104FD000704706487047032A03D8054800EBC20013
:104FE00070470020704700BF50770008D075000858
:104FF00020770008AFF30080AFF30080AFF30080AC
:10500000022938B50C46054616D1202383F31188B2
:10501000FCF74EFA28460121084AFDF729FD2146F2
:10502000074A2846FDF724FD0648FDF7A1FBFCF7DB
:1050300057FA002383F3118838BD00BFA07500081C
:10504000E07500085C1F0020AFF30080AFF3008024
:105050002DE9F04F754B764A9B69764C764D774E2D
:105060002DED028BDFED768A9FED768A9A6183B013
:10507000AA8AB4F810B0B4F812A0B4F81490B4F836
:105080001680238BB4F81AC0B5F80CE0EF89288B92
:10509000698B06EE102A6C4A928A01926B4AC2F81A
:1050A00000B06B4AC2F800A06A4AC2F800906A4A8F
:1050B000C2F80080694A1360634A4AEA0B2B4CEA43
:1050C000032AD38A664AC2F800C0DFF8C0C15E4A2C
:1050D000CCF800E006EE90BA48EA092B47EA0E2920
:1050E000B2F80EE05F4ADFF8A8C110605E4ACCF863
:1050F00000701160019ADFF89CC1EF8A01EE90BA4E
:1051000041EA002843EA0221584AA08982ED006A58
:10511000F8EEE17A01EE90AA019ACCF80020F8EEC0
:10512000E13ADFF874C1B289CCF8003001EE909A10
:105130004F4BDFF868C1C3F800E0B8EEE13A01EE8A
:10514000908AB8EEE67AF8EEE12A01EE90EADFF80E
:1051500050E1CCF80070CEF8000027EE287ADFF896
:1051600044C1DFF844E1CCED006A8EED007ADFF84F
:105170003CC1DFF83CE1CCF80080CEF8001067EECF
:10518000A87AB8EEE15ADFF82CC1DFF82CE1CCF8B0
:10519000009001EE901A3749CEF800A0C1F800B097
:1051A00004EE107A37EEC72A62EEA82A3249DFF8F9
:1051B0000CC1DFF80CE181ED002ACCED007ACEEDD8
:1051C000002AF8EEC45AF8EEC64A63EE883A23EE97
:1051D000083AB8EEE14A2949DFF8E8C0DFF8E8E02C
:1051E00081ED003ACCED003A8EED004A64EE884A3B
:1051F0002349DFF8D8C0DFF8D8E0224BC1ED004AE0
:105200008CED005ACEED005A1F49DFF8C8C0DFF818
:10521000C8E01A60F789B28AF38A0F603220CCF8AE
:105220000020CEF80030FCF7A3FC21E7C40D0020DD
:10523000607700080C190020D0270020FC11002006
:1052400017B7D138CDCCCC3D701800208C19002078
:1052500090190020DC11002050190020F8180020BF
:10526000FC1800206C180020241F00209012002041
:10527000CC2700206C120020B01900205419002007
:1052800020220020401900202C1900203C1F002063
:10529000401F00203422002038220020E811002086
:1052A0002812002084120020941200203C220020AA
:1052B00058190020EC110020A8190020BC21002062
:1052C0004C19002080190020C8210020F82100205E
:1052D0000C2200203818002068180020AFF300804E
:1052E0002DE9F04FC54BC64A9B69DFF83494DFF8CF
:1052F00034B4DFF834A42DED108B9FEDC2EADFED5E
:10530000C2EA9FEDC2FADFEDC2FA9A6189B0BBF83A
:1053100010300293BBF812300393BBF8143004939F
:10532000BBF81630B9F810E0B9F812700593B94B14
:10533000B9F81460B9F81650B9F80C80C3F80080B9
:1053400047EA0E23B9F80EC0BBF80C10BBF80E20CC
:10535000B9F81840B9F81A00DFEDAFCA9FEDAFCA2F
:10536000DFEDAFBA9FEDAFBADFEDAFAA9FEDAFAA09
:10537000DFEDAF9A9FEDAF9ADFEDAF8A9FEDAF0AF9
:105380009FEDAF8A9FEDAF7A9FEDAF1ADFEDAF1AB9
:105390009FEDAF2ADFEDAF2ADFEDAF0ADFEDAF7A89
:1053A0009FEDAF3ADFEDAF3A9FEDAF4ADFEDAF4A89
:1053B00005EE903A45EA062306EE103AAC4B4CEA6D
:1053C0000828C3F80080AB4BC3F800C0AA4BC3F851
:1053D00000E042EA01230693A84B1F60029B039F53
:1053E00040EA042C06EE90CA47EA0327DFF83CC3E4
:1053F0000797A34FCCED005AA24BDFF834C33E60B1
:10540000A14F8CED006A1D60DFF828C39F4B3C6004
:105410009F4CCCED006A18609E4821609E4C079B13
:1054200002609E4A029923609D4B1160059A1A60A2
:10543000DFF804C3BAF81620BAF81830069F0292B3
:105440000193059A049BCCF80070DFF8F0C2039F2B
:10545000CCF8007042EA03220392DFF8E4C2914ADA
:10546000BBF818E0CCF800E0B2F80CC08E4ABBF8EC
:105470001A70039B13608D498D4B04988D4ABAF8BE
:105480000E50BAF80C60BAF81040086047EA0E2EC9
:10549000BAF81200BAF8141005EE108ABAF81A8099
:1054A000C3F800E07F4B1760834ADF89834B1660A7
:1054B00045EA06261E60824A824B15601C60824ABD
:1054C000824B40EA0424186014608148029A814BA0
:1054D000016042EA012580481D60804B026001990D
:1054E000019A1A607E4A7F4B48EA012147EA0C2064
:1054F0000590049111606B487B49028AC1F800C095
:10550000418ADFF840C27948C3F80080059BCCF897
:1055100000300760DFF88CC1754B764FBCF8140083
:1055200039601A60744FBCF81630386041EA0221C5
:105530000DEE904A43EA00227048714C714FDFF83B
:1055400008C2B8EEEDDAB8EEC55A0DEE900AF8EEE4
:10555000E66A35EE6D5ADDED06DA76EEEC6AF8EEC7
:10556000EDCADDED07DA3DEE4CCAB8EEEDDADDED61
:1055700003DA7CEEEBBAF8EEEDCA0DEE90EA3DEE02
:105580004BBAB8EEEDDA0DEE906A7CEEEAAAF8EED0
:10559000EDCA0DEE905A3DEE4AAAB8EEEDDADDED19
:1055A00004DA7CEEE99AF8EEEDCADDED05DA216069
:1055B0003DEE499AB8EEEDDA0DEE901A7CEEE88AEF
:1055C00051493A60F8EEEDCAF8EEE55AB8EEC66A0F
:1055D0000DEE902A75EEEE5A36EE6F6A3CEEC00A7A
:1055E0000CEE901A3DEE488A85EE0E5ACCF800304B
:1055F0004649474A474B484C484FA7E0C40D002056
:105600006877000814AE084200C00D456666054282
:1056100000D007459C18002000400A45002007459F
:1056200000B00B4500300A450020094500800945BF
:1056300000000A4500900A4500200B4500200C455B
:1056400000100B45AE470E42AE471042295CF341B5
:10565000AE47004214AE074200400C4514AE05426E
:10566000CDCCFA4114AE0342666607420000084200
:10567000541F0020A01800207C120020801200205F
:10568000D4110020D811002004220020082200207C
:105690000419002094190020AC19002038190020AA
:1056A00034180020C4180020C02100203018002029
:1056B000C42100203412002030220020F01E0020DF
:1056C000A0120020F41E0020FC1E0020F81E002066
:1056D000F0180020001F0020F4180020981200206D
:1056E000041F00209C120020F4110020241200202E
:1056F0001C220020EC180020481F002000600945F3
:105700000C1F0020101F002014AE014200190020C1
:10571000001800201C12002024220020F01100207C
:105720006019002004180020D8210020581F0020F4
:10573000A4190020B4210020B82100203C19002029
:1057400030120020081F00204C1F0020DFF8B8C0D6
:105750003220B8EEEDDAC5EE8F5A86EE2C6A7DEE79
:10576000600AC6EE876A8CEE07CACBEE81BA8BEE72
:1057700021BACAEE82AA8AEE22AAC9EE839A89EEDB
:10578000239AC8EEA78A88EE278A80EE040AC0EE24
:10579000A40A81ED005AC2ED005A83ED006A124955
:1057A000124A134BC4ED006A87ED00CACCED00BA73
:1057B00081ED00BAC2ED00AA83ED00AA0D4C0E4F98
:1057C000DFF848C00D490E4A0E4BC4ED009A87ED34
:1057D000009ACCED008A81ED008A82ED000AC3EDCB
:1057E000000AFCF7C5F992E5841900206018002032
:1057F0006812002080220020182200205C1900205E
:10580000401800205C120020501F0020441F002080
:105810002DE9F04FBD4BBE4A9B69DFF8C493DFF81A
:10582000C4B3DFF8C4A32DED028B9FEDBA8A9A6151
:1058300085B0BBF810300093BBF812300193BBF871
:1058400014300293BBF81630B9F810E0B9F81270B2
:105850000393B14BB9F81460B9F81650B9F80C803D
:10586000C3F8008047EA0E23B9F80EC0B9F8184013
:10587000B9F81A00BBF80C10BBF80E2005EE903AF0
:1058800045EA062306EE103AA44B4CEA0828C3F872
:105890000080A34BC3F800C040EA042CA14B06EEE5
:1058A00090CA42EA012CC3F800E007EE10CA9E4BF2
:1058B000DFF838C3C3ED005ACCF80070019B009F9D
:1058C000DFF82CC343EA0723984FCCF8006007EEBB
:1058D000903ADFF820C3964B3D60964F83ED006A07
:1058E000CCF80040944B954C3960DFF80CC39449D8
:1058F000C3ED006A2060934B934C8CED007A0A60F4
:10590000009A1A60C4ED007A904A914C0299039B68
:1059100011602360BAF81620BAF81830019F00937E
:105920000192029B039ADFF8D4C2BBF818E0CCF8CE
:10593000007042EA032200EE902ADFF8C4C2854AD2
:10594000854BBBF81A70C3ED000ACCF800E0834B1E
:10595000B2F80CC0824A1F6047EA0E2EC2F800E07F
:10596000804B7C4ABAF80E50BAF80C60D7891E609A
:105970007D4A7E4BBAF81200BAF810401D6045EA25
:10598000062616607A4B7B4ABAF8141001EE10EA2C
:1059900040EA042E05EE108ABAF81A801460C3F8A3
:1059A00000E0754A019B754C116001EE906A43EA74
:1059B000012673492060009A724C0B60724B734948
:1059C000266048EA02240C601A607149614BC1F8F4
:1059D00000C0188A598A6F4B6F4A1F6047EA0C252E
:1059E00000EE10EA6D4FC2F80080DFF818C26C4A72
:1059F000584B3860B8EEC02A6A4FCCF8001000EE61
:105A0000104AB8EEC55A684C1560B8EEC66A9A8A54
:105A10003A6041EA0021216004EE906AB8EEC03A93
:105A200025EE085A00EE101A26EE086A5F4F60490C
:105A300087ED005AF8EEE55AF8EEE66AB8EEC77A56
:105A4000F8EEE00A81ED006AF8EEE42A65EE885A85
:105A500004EE905A66EE886A27EE087A60EE880AAD
:105A6000DFF8A4C1534C544F5449DB8ACCED005AA3
:105A7000F8EEE77AB8EEC11AF8EEE11AC4ED006A62
:105A800087ED007AC1ED000AF8EEE43A67EE887A15
:105A900021EE081A61EE881A62EE882ADFF86CC1DE
:105AA000474C484F4849CCED007A43EA022284ED46
:105AB000001AC7ED001AC1ED002AB8EEC04A22EE66
:105AC000082A00EE102A23EE083A63EE883ADFF83F
:105AD00040C13E4C3E4F3F498CED002AF8EEC04A93
