:020000040800F2
:1000000000040020010C0008210D0008210D00084B
:10001000210D0008210D0008210D0008210D000808
:10002000210D0008210D0008210D0008510D0008C8
:10003000210D0008210D0008210D0008510E0008B7
:10004000210D0008210D0008210D0008210D0008D8
:10005000210D0008210D0008210D0008210D0008C8
:10006000210D0008210D0008210D000811300008A5
:100070004130000871300008B1300008F13000084C
:100080003131000871310008F1340008A13700084F
:10009000415000080138000891380008210D00087F
:1000A000210D0008D1390008210D0008F1390008A0
:1000B000F13A0008113A0008313A0008210D000811
:1000C000210D0008210D0008210D0008210D000858
:1000D000210D0008C13D0008E13D0008013E000877
:1000E000210D0008210D0008210D0008210D000838
:1000F000513A0008210D0008713A0008210D00084E
:10010000210D0008210D0008210D0008210D000817
:10011000210D0008210D0008210D0008210D000807
:10012000B1310008E13100081132000851320008F5
:1001300091320008210D0008210D0008210D000852
:10014000210D0008210D0008210D0008210D0008D7
:10015000210D0008210D0008210D0008210D0008C7
:10016000210D0008210D0008F13F00081140000892
:10017000210D0008210D0008210D0008210D0008A7
:08018000210D0008210D00080B
:100190002DE9F0478AB002F053F800F0E1FE5D4827
:1001A0005D4EDFF8A8A15D4F5D4D002102F030F9F2
:1001B0005C48002102F02CF940235B495B4840F683
:1001C000381204F08DFB5A480021072205F0C8F9C7
:1001D000072257480121002405F0C2F94FF0010819
:1001E00003234FF002095248019301A98DF8093009
:1001F0008DF808908DF80A408DF80B8005F050F9C5
:10020000B021142000F05CFE4A4BDA6942F0007223
:10021000DA6103A805F044F80723082203A9464839
:100220008DF811308DF810208DF812408DF81340A4
:100230008DF814408DF815408DF816408DF8174054
:100240008DF80E408DF80F40ADF80C9004F018FFBB
:1002500006A88DF822408DF823408DF82480ADF853
:100260001840ADF81A40ADF81C40ADF81E40ADF88E
:1002700020408DF8258004F093FF424649462E48E1
:1002800005F0FEF8304602F0D3F95146304602F050
:10029000F7F9C82001F08CFADAF80000274902F0DB
:1002A0006FFB04F005FB2448254905F011F8CCB19B
:1002B00094F820300E2B28D0224B9A8A92B282F4E6
:1002C00000529A824FF4FA7001F072FA2B68144AC5
:1002D0000133FF2B16D018481949136004F0F8FFBA
:1002E000002CE5D1D6F854321B681B78042BDFD1E3
:1002F000154840F63811402204F0E2FA0123044682
:100300003B60D9E700231360CDE7204601F0A0FA57
:100310000024D1E7740F0020001B0020C011002032
:10032000741D0020F00F0020C81100203064000868
:10033000000C00480010024000640040B062000859
:10034000581D00200010004800640008E063000809
:1003500081F0004102E000BF83F0004330B54FEA76
:1003600041044FEA430594EA050F08BF90EA020FE3
:100370001FBF54EA000C55EA020C7FEA645C7FEA76
:10038000655C00F0E2804FEA5454D4EB5555B8BF99
:100390006D420CDD2C4480EA020281EA030382EA0A
:1003A000000083EA010180EA020281EA0303362D9C
:1003B00088BF30BD11F0004F4FEA01314FF4801C6F
:1003C0004CEA113102D0404261EB410113F0004F81
:1003D0004FEA03334CEA133302D0524263EB430338
:1003E00094EA050F00F0A780A4F10104D5F1200ED6
:1003F0000DDB02FA0EFC22FA05F2801841F1000131
:1004000003FA0EF2801843FA05F359410EE0A5F104
:1004100020050EF1200E012A03FA0EFC28BF4CF035
:10042000020C43FA05F3C01851EBE37101F00045EB
:1004300007D54FF0000EDCF1000C7EEB00006EEBF8
:100440000101B1F5801F1BD3B1F5001F0CD3490882
:100450005FEA30004FEA3C0C04F101044FEA4452D9
:1004600012F5800F80F09A80BCF1004F08BF5FEA60
:10047000500C50F1000041EB045141EA050130BD40
:100480005FEA4C0C404141EB010111F4801FA4F1E3
:100490000104E9D191F0000F04BF01460020B1FA38
:1004A00081F308BF2033A3F10B03B3F120020CDA70
:1004B0000C3208DD02F1140CC2F10C0201FA0CF04E
:1004C00021FA02F10CE002F11402D8BFC2F1200CB3
:1004D00001FA02F120FA0CFCDCBF41EA0C01904069
:1004E000E41AA2BF01EB0451294330BD6FEA0404B2
:1004F0001F3C1CDA0C340EDC04F11404C4F120029D
:1005000020FA04F001FA02F340EA030021FA04F3AE
:1005100045EA030130BDC4F10C04C4F1200220FA05
:1005200002F001FA04F340EA0300294630BD21FA43
:1005300004F0294630BD94F0000F83F4801306BF09
:1005400081F480110134013D4EE77FEA645C18BFFD
:100550007FEA655C29D094EA050F08BF90EA020F94
:1005600005D054EA000C04BF1946104630BD91EA8C
:10057000030F1EBF0021002030BD5FEA545C05D18F
:100580004000494128BF41F0004130BD14F58004CE
:100590003CBF01F5801130BD01F0004545F0FE4142
:1005A00041F470014FF0000030BD7FEA645C1ABF77
:1005B000194610467FEA655C1CBF0B46024650EAAE
:1005C000013406BF52EA033591EA030F41F40021DA
:1005D00030BD00BF90F0000F04BF0021704730B560
:1005E0004FF4806404F132044FF000054FF0000135
:1005F00050E700BF90F0000F04BF0021704730B5F6
:100600004FF4806404F1320410F0004548BF4042CA
:100610004FF000013EE700BF42004FEAE2014FEA1F
:1006200031014FEA02701FBF12F07F4393F07F4FFA
:1006300081F06051704792F0000F14BF93F07F4F2C
:10064000704730B54FF4607401F0004521F000416F
:1006500020E700BF50EA010208BF704730B54FF0F5
:1006600000050AE050EA010208BF704730B511F0FA
:10067000004502D5404261EB41014FF4806404F132
:1006800032045FEA915C3FF4DCAE4FF003025FEAB4
:10069000DC0C18BF03325FEADC0C18BF033202EB3C
:1006A000DC02C2F1200300FA03FC20FA02F001FA96
:1006B00003FE40EA0E0021FA02F11444C1E600BF35
:1006C00070B54FF0FF0C4CF4E06C1CEA11541DBFE8
:1006D0001CEA135594EA0C0F95EA0C0F00F0DEF8B3
:1006E0002C4481EA030621EA4C5123EA4C5350EA98
:1006F000013518BF52EA033541F4801143F48013E9
:1007000038D0A0FB02CE4FF00005E1FB02E506F079
:100710000042E0FB03E54FF00006E1FB03569CF0CE
:10072000000F18BF4EF0010EA4F1FF04B6F5007FD4
:1007300064F5407404D25FEA4E0E6D4146EB060646
:1007400042EAC62141EA55514FEAC52040EA5E50CF
:100750004FEACE2EB4F1FD0C88BFBCF5E06F1ED879
:10076000BEF1004F08BF5FEA500E50F1000041EBB0
:10077000045170BD06F0004646EA010140EA02005D
:1007800081EA0301B4EB5C04C2BFD4EB0C0541EA7F
:10079000045170BD41F480114FF0000E013C00F394
:1007A000AB8014F1360FDEBF002001F0004170BDB8
:1007B000C4F10004203C35DA0C341BDC04F11404D1
:1007C000C4F1200500FA05F320FA04F001FA05F25D
:1007D00040EA020001F0004221F0004110EBD3702A
:1007E00021FA04F642EB06015EEA430E08BF20EA56
:1007F000D37070BDC4F10C04C4F1200500FA04F3F9
:1008000020FA05F001FA04F240EA020001F000418A
:1008100010EBD37041F100015EEA430E08BF20EAFD
:10082000D37070BDC4F1200500FA05F24EEA020E45
:1008300020FA04F301FA05F243EA020321FA04F074
:1008400001F0004121FA04F220EA020000EBD3702B
:100850005EEA430E08BF20EAD37070BD94F0000F2B
:100860000FD101F00046400041EB010111F4801F5F
:1008700008BF013CF7D041EA060195F0000F18BF10
:10088000704703F00046520043EB030313F4801F4C
:1008900008BF013DF7D043EA0603704794EA0C0F06
:1008A0000CEA135518BF95EA0C0F0CD050EA41061C
:1008B00018BF52EA4306D1D181EA030101F0004199
:1008C0004FF0000070BD50EA410606BF10461946C1
:1008D00052EA430619D094EA0C0F02D150EA0136CD
:1008E00013D195EA0C0F05D152EA03361CBF10460E
:1008F00019460AD181EA030101F0004141F0FE41AD
:1009000041F470014FF0000070BD41F0FE4141F430
:10091000780170BD70B54FF0FF0C4CF4E06C1CEA30
:1009200011541DBF1CEA135594EA0C0F95EA0C0FE5
:1009300000F0A7F8A4EB050481EA030E52EA0335A0
:100940004FEA013100F088804FEA03334FF08055C1
:1009500045EA131343EA12634FEA022245EA1115EE
:1009600045EA10654FEA00260EF000419D4208BF9F
:10097000964244F1FD0404F5407402D25B084FEA4C
:100980003202B61A65EB03055B084FEA32024FF4F8
:1009900080104FF4002CB6EB020E75EB030E22BF55
:1009A000B61A754640EA0C005B084FEA3202B6EB15
:1009B000020E75EB030E22BFB61A754640EA5C00C4
:1009C0005B084FEA3202B6EB020E75EB030E22BF54
:1009D000B61A754640EA9C005B084FEA3202B6EB55
:1009E000020E75EB030E22BFB61A754640EADC0014
:1009F00055EA060E18D04FEA051545EA16754FEA76
:100A000006164FEAC30343EA52734FEAC2025FEA93
:100A10001C1CC0D111F4801F0BD141EA00014FF022
:100A200000004FF0004CB6E711F4801F04BF0143F3
:100A30000020B4F1FD0C88BFBCF5E06F3FF6AFAE0F
:100A4000B5EB030C04BFB6EB020C5FEA500C50F19F
:100A5000000041EB045170BD0EF0004E4EEA113122
:100A600014EB5C04C2BFD4EB0C0541EA045170BD29
:100A700041F480114FF0000E013C90E645EA060E6D
:100A80008DE60CEA135594EA0C0F08BF95EA0C0F9B
:100A90003FF43BAF94EA0C0F0AD150EA01347FF4E3
:100AA00034AF95EA0C0F7FF425AF104619462CE7BA
:100AB00095EA0C0F06D152EA03353FF4FDAE10461D
:100AC000194622E750EA410618BF52EA43067FF46E
:100AD000C5AE50EA41047FF40DAF52EA43057FF4FE
:100AE000EBAE12E700000000000000000000000074
:100AF0004FEA410212F5001215D211D56FF4787346
:100B0000B3EB625212D94FEAC12343F0004343EAE8
:100B1000505311F0004F23FA02F018BF40427047C3
:100B20004FF00000704750EA013005D111F000404D
:100B300008BF6FF0004070474FF00000704700BFE3
:100B40004FEA4102B2F1E04324BFB3F5001CDCF1EF
:100B5000FE5C0DD901F0004C4FEAC0024CEA507027
:100B6000B2F1004F40EB830008BF20F00100704756
:100B700011F0804F21D113F13872BCBF01F0004059
:100B8000704741F480114FEA5252C2F11802C2F18B
:100B9000200C10FA0CF320FA02F018BF40F001000C
:100BA0004FEAC1234FEAD32303FA0CFC40EA0C00BE
:100BB00023FA02F34FEA4303CCE77FEA625307D1FB
:100BC00050EA01331EBF4FF0FE4040F44000704732
:100BD00001F0004040F0FE4040F40000704700BFCC
:100BE000704700BFAFF30080AFF30080AFF3008029
:100BF000FEE700BFAFF30080AFF30080AFF30080EB
:100C000072B6374880F30988364B37491A684FF077
:100C1000404442F470021A600C600023E1EE103A86
:100C200006228B6082F31488BFF36F8F2F4B304AFC
:100C300093420BD2D943114421F0030119444FF0E0
:100C40005532043B43F8042F8B42FBD1294B83429E
:100C50000CD229491A1D891A21F0030119444FF0B9
:100C60005532043B43F8042F8B42FBD103F068FD5F
:100C70002249234B99420BD2C843184420F0030069
:100C8000204C04300023E258CA5004338342FAD186
:100C90001D4B1E4A93420AD2D943114421F003014D
:100CA00019440022043B43F8042F8B42FBD1184D1A
:100CB000184CFFF795FFAC4204D254F8043B984718
:100CC000AC42FAD3144D154CFFF762FAAC4204D291
:100CD00054F8043B9847AC42FAD3FFF789FF00BFB2
:100CE0000008002088ED00E034EF00E00000002064
:100CF0000004002000040020030800200008002059
:100D0000240800206865000828080020981D00209D
:100D1000880100088801000888010008880100088F
:100D2000FEE700BFAFF30080AFF30080AFF30080B9
:100D300072B6FEE7AFF30080AFF30080AFF3008040
:100D400000F096F900F05CFC00F0AAF900DF00BFAB
:100D5000EFF30982064BD2F8CC10596099686831DC
:100D60006832996082F30988002383F31188704701
:100D700030EF00E0AFF30080AFF30080AFF300800E
:100D800008B50A4B0A4A002199600720DA60102151
:100D900000F0BEF80A204FF4007100F0B9F80B2003
:100DA0008021BDE8084000F0B3B800BF00ED00E0CE
:100DB0000003FA05AFF30080AFF30080AFF30080CB
:100DC000202383F311881A4B5B6813F4006322D04D
:100DD000EFF30983A3F1680282F3098815494FF004
:100DE00080708A6943F84C0C92F823000968926875
:100DF000896898B1914294BF00220122A2B10E4AA3
:100E000043F8502CF1EE10FA0C4A5168596641F043
:100E100001015160704783F311887047914234BFDC
:100E200000220122002AEAD1054A43F8502CEBE7C0
:100E300000ED00E0E40D0020410D000830EF00E07F
:100E40004C0D0008AFF30080AFF30080AFF30080DB
:100E500008B500F07DF9202383F3118800F040F9F4
:100E600000F0B6F800F054F9002383F3118800F085
:100E70008FF9BDE80840FFF7A3BF00BFAFF30080C4
:100E80002DE9F04F2DED108AC1F80CD0D0F80CD020
:100E9000BDEC108ABDE8F08FAFF30080AFF30080A7
:100EA00008B500F0FDF8002383F311882846A04719
:100EB00000F0BEFC08BD00BFAFF30080AFF30080C0
:100EC00020F0030202F1604202F56142F0B44309EE
:100ED00000F00304D2F80053E400FF269B00A64074
:100EE00003F1604325EA060503F561430127A140AC
:100EF00000F01F0007FA00F045EA0104C2F80043C1
:100F0000C3F88001F0BC1860704700BFAFF30080E9
:100F100020F0030303F1604303F56D4300F0030089
:100F200010B4C0009A69FF24844022EA0402814080
:100F30000A439A615DF8044B704700BFAFF300802D
:100F4000024B034A9B699A61FEE700BFE40D002053
:100F500010570008AFF30080AFF30080AFF30080BC
:100F600030B583B0FFF70CFF00F002FA00F098F9FB
:100F700001F036F801F07CF800F05AF940210E48F3
:100F80000E4C00F04DFB01250D4BC36180F8205045
:100F9000A06100F055F8002383F3118862B6A269BE
:100FA00008499161084800932A46084B4FF4A47100
:100FB00000F0C6FB03B030BD28080020E40D00207F
:100FC00000040020E058000878080020410F0008C5
:100FD000F8B500F0FDF8164B9B6993F8232012B189
:100FE000013A83F823205A6A124D01325A62EB68A3
:100FF0002C680133AC42EB6018D0A768013FA760B2
:10100000A7B92368E668E7605D602B6000F080F8B0
:10101000002383F311882069B047202383F31188CC
:1010200000F05EF82C68A368002BEAD0F8BD00BF82
:10103000E40D0020D40D0020AFF30080AFF300805A
:10104000054B1B6813B9054B1B6823B1044B054ABC
:101050001A60FFF76DBE7047C0090020CC0D00205C
:10106000D00D002030570008AFF30080AFF30080B0
:10107000074B1B6810B5074C0BB9236823B1064B0F
:10108000064A1A60FFF754FE0123236010BD00BF1B
:10109000C0090020CC0D0020D00D002038570008DA
:1010A000094B1B6810B5094C2BB92368002B02DDD6
:1010B0000023236010BD064B064A1A60FFF738FE76
:1010C0000023236010BD00BFC0090020CC0D00200C
:1010D000D00D002040570008AFF30080AFF3008030
:1010E000074B1B68002B10B5064C01DD236823B1AC
:1010F000054B064A1A60FFF71BFE0123236010BD53
:10110000C0090020CC0D0020D00D00204857000859
:10111000094B1B68002B10B5084C05DD2368002B1C
:1011200002DD0023236010BD054B064A1A60FFF75D
:10113000FFFD0023236010BDC0090020CC0D00205E
:10114000D00D002050570008AFF30080AFF30080AF
:1011500010B5202383F31188094C2368002B02DB90
:10116000084A12682AB1084B084A1A60FFF7E0FDE6
:10117000236801332360002383F3118810BD00BF6F
:10118000C0090020CC0D0020D00D002058570008C9
:1011900010B5202383F31188094C2368002B02DD4E
:1011A000084A12682AB1084B084A1A60FFF7C0FDC6
:1011B0002368013B2360002383F3118810BD00BF27
:1011C000C0090020CC0D0020D00D00206057000881
:1011D000064B1B68002B04DB054B1B68002B00DD56
:1011E0007047044B044A1A60FFF7A2BDC0090020F3
:1011F000CC0D0020D00D002068570008AFF3008010
:10120000064B1B6823B9064B1B68002B00DD70479B
:10121000044B054A1A60FFF78BBD00BFC0090020D0
:10122000CC0D0020D00D002070570008AFF30080D7
:10123000034A1346402143F8081B5360704700BF20
:10124000C4090020AFF30080AFF30080AFF300804B
:101250000C4A0D495368896910B40C4CE4681C6051
:101260005960816A996090F820101973103302F563
:1012700081618B4228BF02F1080353605DF8044B83
:10128000704700BFC4090020E40D0020D40D0020E9
:10129000014B1860FFF74CBDD00D0020AFF300806C
:1012A000044B4FF0FF3100225B601B609960DA60F5
:1012B000704700BFD40D0020AFF30080AFF3008073
:1012C000F8B505460C4616461F46FFF781FFCDB11F
:1012D000C6B1BCB10D492F610B68EE609A689442AB
:1012E00004D91B68A41A9A68A242FAD35A686A60A1
:1012F0008B422B605D601560AC6002D09A68141B55
:101300009C60F8BD0248FFF7C3FFE3E7D40D00205F
:1013100080570008AFF30080AFF30080AFF3008088
:1013200010B50446FFF754FF84B1E36893B1236816
:101330000A4A934203D09968A2680A449A60626894
:101340001360236800215A60E16010BD0448FFF774
:101350009FFFEAE70348FFF79BFFE8E7D40D002073
:1013600090570008A0570008AFF30080AFF300804B
:10137000034B00225B601B605B611B619A607047DE
:10138000E40D0020AFF30080AFF30080AFF30080E6
:1013900010B50446FFF71CFF94F820308BB10E2BDC
:1013A0000FD00022A168094B84F820201B689A689E
:1013B0008A42FBD25A686260236020465C601460F7
:1013C00010BD0348FFF764FFEBE700BFE40D00200A
:1013D000C0570008AFF30080AFF30080AFF3008088
:1013E00010B52023044683F31188FFF779FE94F8A3
:1013F00020300D2B11D8DFE803F016101007100B6A
:10140000101010101010100BA36A9A6801329A6025
:1014100094E80C001A60226853604FF0FF33A36217
:101420002046FFF7B5FFFFF773FE002383F3118813
:1014300010BD00BFAFF30080AFF30080AFF30080BA
:1014400070B5114C0646FFF7DBFE2368A5691A68E4
:1014500085F820601420012185F823005460284677
:1014600083F820102260A361FFF7F2FEEB69ADF173
:101470006402934202D90548FFF70AFFA069294692
:10148000BDE87040FFF7FCBCE40D0020D457000815
:1014900070B50C4686B00646FFF7B2FE631C12D04C
:1014A0000D4D0E4AAB69214601A8FFF709FF3046F2
:1014B000FFF7C6FF049B13B101A8FFF731FFAB692B
:1014C000986A06B070BD044D3046FFF7B9FFAB69AE
:1014D000986A06B070BD00BFE40D0020E11300085B
:1014E00070B5164D04460E46FFF78AFEA869A3683C
:1014F0008268A662934213D9FFF74AFF012306468A
:1015000084F82030AC61FFF7A3FEF369ADF164020B
:1015100093420AD820463146BDE87040FFF7B0BC80
:101520002046BDE87040FFF733BF0548FFF7B0FE27
:1015300020463146BDE87040FFF7A2BCE40D002014
:10154000D4570008AFF30080AFF30080AFF3008002
:1015500070B5104C2368A5691A6822601421012611
:101560005460284683F8206085F82310A361FFF7B4
:101570000FFF2846FFF76CFEEB69ADF16402934262
:1015800002D90548FFF784FEA0692946BDE87040EE
:10159000FFF776BCE40D0020D4570008AFF30080BD
:1015A00070B5154E3268B5691368AC6833600120B8
:1015B00000215E6082F820001346B26185F8201099
:1015C00000E01B689A68A242FBD85A686A602B60E8
:1015D00028465D601560FFF73BFEEB69ADF16402E4
:1015E000934202D90548FFF753FEB0692946BDE88A
:1015F0007040FFF745BC00BFE40D0020D457000841
:10160000044B9B6993F823300BB1FFF7C9BFFFF779
:101610009FBF00BFE40D0020AFF30080AFF3008058
:101620002DE9F007144C416465694561002200F121
:1016300030064FF0020A4FF014094FF0010800F194
:101640004C0700F12C0C0461816080F820A06061DF
:1016500080F8239080F8228080F821200264C26301
:10166000426282612861C76146630663C0F82CC08C
:10167000BDE8F007704700BFE40D0020AFF3008025
:10168000884203D200F8012B8842FBD1704700BF8B
:101690002DE9F04F044683B00D4617469846FFF7F4
:1016A00097FD14B1B5F59C7F38D21F48FFF7F0FDC8
:1016B0001E4E0C987369A5F16401214404F12C02BB
:1016C0000025E160019248644FF0020B4FF0140ACC
:1016D0004FF0010916480866C1F840806361A760B1
:1016E0002661676484F820B0746184F82150256411
:1016F000E5636562A56184F823A084F822901C61EB
:10170000019BE36204F1300204F14C0C2046626359
:101710002263C4F81CC003B0BDE8F08F7F2FC4D88B
:10172000B8F1000FC4D1C0E7F0570008E40D002065
:10173000A10E0008AFF30080AFF30080AFF300808C
:101740002DE9F04F83B080460C9F894693469A4618
:1017500000F14C050446FF2604F8016BA542FBD1BD
:1017600008EB0904A54204D2552605F8016BA542F1
:10177000FBD1202383F31188FFF77AFC53465A46A6
:10178000494600974046FFF783FF00210446FFF7D4
:10179000A7FEFFF785FC002383F31188204603B0E2
:1017A000BDE8F08FAFF30080AFF30080AFF30080AF
:1017B00010B5044610B90948FFF76AFD202383F3EA
:1017C0001188FFF755FC21460620FFF761FEFFF761
:1017D00067FC002383F3118810BD00BF3058000858
:1017E00038B5104B9C692546A06255F82C0FA842CD
:1017F00006D00368E362FFF7CBFDE06AA842F8D1A8
:1018000094F821309B0704D1636922691A61226927
:1018100053610E20FFF714FE0348BDE83840FFF780
:1018200037BD00BFE40D002040580008AFF3008032
:1018300010B52023044683F31188FFF719FC2046D6
:10184000BDE81040FFF7CCBFAFF30080AFF30080DE
:1018500038B50446202383F31188FFF709FC94F878
:101860002230BBB1013BDDB284F82250FFF718FCF7
:10187000002383F311881DB994F820300E2B00D07B
:1018800038BD94F8213003F00303012B08D0022B5C
:1018900010D038BD0D48FFF7FBFC94F82230E1E78B
:1018A000636922691A61226920465361BDE83840A4
:1018B00000F02EBC636922691A612269A06C536131
:1018C0002146BDE8384000F0A3BC00BFA458000882
:1018D0002DE9F04182B090461F460D4600F0D8FB3E
:1018E000044620B300F14C063146FF22FFF7C8FE44
:1018F000304661195522FFF7C3FE202383F3118878
:10190000FFF7B6FB089B0093424629463B4620461C
:10191000FFF7BEFE012380F8213000210446FFF7C7
:10192000DFFDFFF7BDFB002383F31188204602B0E3
:10193000BDE8F081AFF30080AFF30080AFF300802B
:1019400038B504460D4628B1002903DB64602460E5
:10195000A56038BD0348FFF79BFC64602460A56068
:1019600038BD00BF00590008AFF30080AFF300801E
:1019700010B50446FFF72CFCFCB1A3682268002BCD
:101980000ADBA24203D00F48FFF782FCA3680133B1
:10199000002BA36006DD10BDA242F4D00133002B62
:1019A000A360F8DC23681A68226000215460996201
:1019B0001846BDE81040FFF7EBBC0348FFF768FC92
:1019C000DBE700BFC0590008AC590008AFF3008046
:1019D00010B5044620B1002364602460A36010BDEC
:1019E0000148FFF755FCF6E7505A0008AFF30080B6
:1019F0003B4B70B505469C69FFF702FC002D6BD090
:101A0000A868002836D0A2688368934207D290F86D
:101A100020308260042B46D0052B30D0FBB12B4602
:101A200003E09968A268914202D31B689D42F8D1F5
:101A30005A686260236004205C601460A562FFF74E
:101A4000FFFCAB68A34202D02648FFF721FC236CC1
:101A5000AB4213D02448BDE87040FFF719BC90E8B2
:101A60000C00012180F820101A6002685360FFF713
:101A70008FFCD4E7236CEB60AC60256470BD90E80C
:101A80000A001960866A01684B60334602E0996873
:101A90008A4202D81B689E42F9D15A6842600360AC
:101AA00058601060BBE790E80A001960866A016818
:101AB0004B60334602E09968914202D31B689E4214
:101AC000F9D15A684260036058601060B068A2683B
:101AD000836893429BD3A2E70448FFF7D9FB8FE7C3
:101AE000E40D0020705A0008845A0008605A00086B
:101AF00010B52023044683F31188FFF7B9FA204676
:101B0000FFF776FFFFF7CCFA002383F3118810BDAF
:101B10001E4A70B52023956983F31188FFF7A8FA50
:101B20002C6C002C2DD0A368AB4203D01848FFF7D3
:101B3000AFFB2C6C2668E3682B64A6421ED0696C50
:101B40004BB11A689A4203D09268914238BF11464D
:101B5000DB68002BF5D13368326CA9603046236016
:101B600000215C60A660E2603464FFF7B9FCFFF717
:101B700097FA002383F31188204670BD0023A360E9
:101B8000F5E70448FFF784FB2C6CCCE7E40D00205C
:101B9000C05A0008AC5A0008AFF30080AFF30080D1
:101BA00038B504460D46FFF713FBC4B1E26B94F859
:101BB000203045EA0201082BE1630CD0092B00D04C
:101BC00038BDA36A19408B42FAD12046FFF7E0FBEB
:101BD0000023836238BDA36A1942F6D138BD02489A
:101BE000FFF756FBE2E700BF2C5B0008AFF3008075
:101BF00070B505460E46FFF7EBFA65B12C68A542B5
:101C000008D0201D0BC83343E360FFF7C9FF2468E9
:101C1000A542F6D170BD0248FFF73AFBEEE700BFE0
:101C2000405B0008AFF30080AFF30080AFF30080AB
:101C300010B4024661B1094B9B69986244680D205B
:101C400083E81400536023605DF8044BFFF720BC69
:101C50004FF0FF305DF8044B704700BFE40D0020EB
:101C600030B4029C046200250A4485600261406031
:101C7000006041618161C160C36130BC704700BFD9
:101C800038B50446FFF7A4FA2068E36863610022D0
:101C9000A042A260A3610AD06FF00105036823602F
:101CA0005C60FFF775FB85622068A042F6D138BD05
:101CB00038B504460D46FFF78BFAA2696369934273
:101CC000A2681BD00132591CA26061611D7062695B
:101CD00023699A420BD22068A0420DD0036823608A
:101CE0005C60FFF755FB00238362184638BD20680F
:101CF000E3686361A042F1D1002038BD002AE1D041
:101D00006FF0030038BD00BFAFF30080AFF3008079
:101D1000F8B504460E46202383F31188FFF7A8F98F
:101D2000E36933B12046984703E0FFF781FF071EC0
:101D300018DBA56820463146002DF6D0A26921693E
:101D4000531C8B4205F1FF35A361A56028BFE368F2
:101D5000177828BFA361FFF7A3F9002383F3118845
:101D60003846F8BDFFF79CF92B4683F311883846B7
:101D7000F8BD00BFAFF30080AFF30080AFF3008089
:101D80002DE9F047044615460F461E46D0F81C8044
:101D9000002A3DD0202383F31188FFF769F907EB70
:101DA000050A4FF000090137B8F1000F05D02046B1
:101DB000C04702E0FFF73CFF10BBA5682046314654
:101DC000002DF7D0A369013D5A1CA261A5601B78C4
:101DD00007F8013C2369A2699A4224BFE368A36122
:101DE000FFF75EF9002383F31188574509F10109D4
:101DF0000BD0202383F31188FFF73AF90137D3E79B
:101E0000FFF74EF92B4683F311884846BDE8F0876B
:101E10000148FFF73DFABDE7905B0008AFF3008093
:101E200030B4029C04628D180561406000608260DD
:101E300041618161C160C36130BC7047AFF3008014
:101E400038B50446FFF7C4F9E36822692068636186
:101E5000D21AA042A361A2600AD06FF00105036804
:101E600023605C60FFF794FA85622068A042F6D197
:101E700038BD00BFAFF30080AFF30080AFF3008048
:101E80002DE9F041202304468846164683F3118845
:101E9000FFF7EEF803E0FFF7CBFE071E1DDBA5689A
:101EA00020463146002DF6D06369013D5A1C62611F
:101EB000A56083F80080236962699A4224BFE368C1
:101EC0006361E3690BB120469847FFF7E9F8002307
:101ED00083F311881846BDE8F081FFF7E1F82B463F
:101EE00083F311883846BDE8F08100BFAFF300806E
:101EF00038B50446FFF76CF96269A3699A42A26893
:101F000016D02169501C5A1CA060A2618A421D781B
:101F10000BD22068A04206D0036823605C60FFF704
:101F200037FA00238362284638BDE368A361F0E7EF
:101F3000002AE6D06FF0020038BD00BFAFF300808A
:101F40002DE9F84F044617460E469B46D0F81CA0D4
:101F5000002A3AD0202383F31188FFF789F84FF045
:101F60000009A56806F1010820466A1EFDB16369F3
:101F7000A2605A1C626132781A70236962699A42BF
:101F800024BFE3686361BAF1000F00D0D047FFF7C8
:101F900087F8002383F31188013F09F1010911D06B
:101FA000202383F31188FFF763F84646D9E72046DC
:101FB0005946FFF73DFE0028D3D0FFF771F82B46B6
:101FC00083F311884846BDE8F88F0248FFF760F9AF
:101FD000C0E700BFA45B0008AFF30080AFF3008050
:101FE0000548064A0649074B20F0070022F0070281
:101FF00008601A60704700BF9F1D002000A00020ED
:10200000040E0020000E0020AFF30080AFF300802C
:1020100010B50446FFF7DCF8074A08491368096859
:10202000E01D20F00700C91A88429DBFC01810604B
:102030001846002010BD00BF040E0020000E002036
:1020400010B52023044683F31188FFF711F82046CA
:10205000FFF7DEFF0446FFF723F8002383F3118820
:10206000204610BDAFF30080AFF30080AFF30080D7
:10207000044B054A1A6003F1100000229A60DA60EE
:10208000FFF7A6BC080E002041200008AFF3008037
:10209000F8B51E4E002818BF0646073106F110009D
:1020A00021F0070506F10804FFF722FD03E05A6856
:1020B000954211D91C462368002BF8D1FFF728FD63
:1020C00033680BB305F108009847E8B10660456036
:1020D00000F108042046F8BD05F10801914208D935
:1020E0001A6822601C4644F8086BFFF711FD204671
:1020F000F8BD6FF00700401B5F1802441868585085
:102100007A6027605D60EDE70024E3E7080E0020B9
:10211000F8B50746002857D057F8086C06F11000AC
:10212000FFF7E6FC08363446A7F10805AC4204D8B0
:102130006368083323449D420BD3B4420ED0AC42B3
:102140000CD32468AC42F8D86368083323449D421A
:10215000F3D21F48FFF79CF8B442F0D123681BB1BB
:102160009D4201D31C46E1E757F8042C47F8083C90
:10217000256002F1080357F8080CE918814209D0DC
:10218000636803F108022244954211D0BDE8F8408B
:10219000FFF7BEBC4968EB5847F8083C53180833B2
:1021A00047F8043C636803F1080222449542EDD1EC
:1021B00057F8041C57F8082C22600B44083363605E
:1021C000BDE8F840FFF7A4BC0248FFF761F8A3E7B9
:1021D000E05B0008D05B0008AFF30080AFF3008045
:1021E00038B504460D46FEF7F3FF24B11DB1236850
:1021F0002B60256038BD0348FFF74AF823682B6041
:10220000256038BD245C0008AFF30080AFF3008088
:1022100038B505460C46202383F31188FEF728FFC6
:1022200028462146FFF7DCFFFEF73AFF002383F341
:10223000118838BDAFF30080AFF30080AFF30080AA
:1022400008B501F06DF800F04BFB0A4801F098FC6E
:1022500000F016F800F02CF800F052F800F060F8EA
:1022600000F0AEF800F074FB00F0DAF9BDE80840C9
:1022700002F06EBA805F0008AFF30080AFF3008019
:1022800001F0F6B8AFF30080AFF30080AFF3008049
:1022900000230122027043608360C36003614361D5
:1022A0001830FFF795BB00BFAFF30080AFF300809D
:1022B00001F036BBAFF30080AFF30080AFF30080D6
:1022C00038B50123002504460370456029460830CF
:1022D000FFF736FB294604F11400FFF731FB04F148
:1022E000200504F1240004F1280104F12C0204F17A
:1022F000300325626062A162E262236338BD00BFE1
:1023000001F0C6BBAFF30080AFF30080AFF30080F5
:102310000122002302704360704700BFAFF30080CA
:1023200001F01EBCAFF30080AFF30080AFF300807C
:102330000122002302704360704700BFAFF30080AA
:102340000C30FFF71DBD00BFAFF30080AFF300807E
:102350000C304FF0FF33FFF713BD00BFAFF3008029
:102360003030FFF7EDBD00BFAFF30080AFF300806A
:1023700030304FF0FF33FFF7E3BD00BFAFF3008015
:102380000C30FFF7C5BC00BFAFF30080AFF3008097
:102390000C304FF0FF31FFF7BBBC00BFAFF3008044
:1023A0003030FFF76DBD00BFAFF30080AFF30080AA
:1023B00030304FF0FF32FFF763BD00BFAFF3008056
:1023C00001F02EBDAFF30080AFF30080AFF30080CB
:1023D00070B50E4B044682B040F8043B01260094D1
:1023E0000B461546606004F1540104F10C0026729E
:1023F0001022FFF735FC00942B4604F1300004F165
:1024000064011022FFF70CFD02B070BDB05C000843
:1024100038B504460D46B8B1202383F31188FEF782
:1024200027FE237A013B012B02D90948FEF730FF32
:102430002946204601F02CFD02232372FEF730FED0
:10244000002383F3118838BD0248FEF721FFE3E73C
:102450005C5C0008505C0008AFF30080AFF30080C4
:1024600038B504460D46FEF7B3FED4B163693BB1FF
:10247000294604F10C00FFF71BFC00280BDB38BDDC
:10248000201D0421FFF7B4FB294604F10C00FFF7DF
:102490000FFC0028F3DA201D8021BDE83840FFF74B
:1024A000A7BB0248FEF7F4FEE0E700BF885C000827
:1024B00070B5046AD4F854321A681178042900D02F
:1024C00070BD217A0229FBD112891B7942FA03F3EC
:1024D00013F00105F4D1216CE36BA26BC91A8E1ABB
:1024E000EED0FEF7DDFD2B4683F31188D4F854229D
:1024F00033461068117904F1300200F0B9FA202354
:1025000083F31188FEF7B4FDD4F85432BDE870406F
:102510001868197900F0DCBAAFF30080AFF30080DF
:10252000F8B5046AD4F8542213681978042900D045
:10253000F8BD217A0229FBD15279598903EB820334
:1025400041FA02F2DB6812F001075D8AF0D1E66918
:10255000A2696369B61AF61AB542E9D8FEF7A0FD7A
:102560003B4683F31188D4F85422B6FBF5F305FB00
:1025700003F31068517904F10C0200F069FA20238A
:1025800083F31188FEF774FDD4F854321868597932
:10259000BDE8F84000F07CBAAFF30080AFF30080F4
:1025A0000C30FFF7EDBB00BFAFF30080AFF300804E
:1025B0000C304FF0FF33FFF7E3BB00BFAFF30080F9
:1025C0003030FFF7BDBC00BFAFF30080AFF3008039
:1025D00030304FF0FF33FFF7B3BC00BFAFF30080E4
:1025E0000C30FFF795BB00BFAFF30080AFF3008066
:1025F0000C304FF0FF31FFF78BBB00BFAFF3008013
:102600003030FFF73DBC00BFAFF30080AFF3008078
:1026100030304FF0FF32FFF733BC00BFAFF3008024
:10262000704700BFAFF30080AFF30080AFF30080CE
:1026300010B503460E4A43F8042B82B0044601222B
:10264000009004F15401436002720A4B0C304FF4C5
:102650008072FFF705FB009404F1300004F5AA71C5
:102660004FF48072044BFFF7DBFB02B010BD00BFDC
:10267000005D000821250008B1240008AFF30080A8
:1026800070B50D4604460E6808B3202383F3118805
:10269000FEF7EEFC237A013B012B02D90E48FEF730
:1026A000F7FD2A7906EB8202022394626A791132DD
:1026B00046F82240AA7906EB8206B4622372C4F877
:1026C0005452FEF7EDFC002383F3118870BD0348DC
:1026D000FEF7DEFDD9E700BFE05C0008D05C000833
:1026E00070B5D0F8543200F10C06044630461D682F
:1026F000FFF7C6FA04F13000FFF7A2FB201D01210D
:10270000FFF776FAD4F85432597905EB810328465D
:10271000DB6832465B8A00F09BF9D4F854322846D5
:102720005979BDE8704000F0B3B900BFAFF3008045
:1027300090F8743003F06003202B01D00020704724
:1027400090F87530212B03D0222B09D0202BF5D106
:10275000064B836607220023C26603670120704789
:1027600000238366C36603670120704700080020CA
:10277000F8B500EB810306469C6A0D46CCB12023D8
:1027800083F31188FEF7ACFC0821201DFFF730FA17
:10279000216CE26BA36B8A1AD71A18D106EB85035A
:1027A000DA6853695B682BB9FEF7B2FC002383F348
:1027B0001188F8BD128A013A12EA0307F4D1FEF734
:1027C000A7FC3B4683F3118804F1300207E0FEF7D3
:1027D0009FFC002383F3118804F130023B4630460E
:1027E000294600F045F9202383F31188FEF778FC91
:1027F0003046294600F06CF9D6E700BFAFF3008001
:1028000001F111032DE9F04150F823400D46064631
:10281000CCB1202383F31188FEF762FC201D042134
:10282000FFF7E6F906EB8503E169D868A2696369F9
:10283000478A8A1AC3EB0208474506D9FEF768FCA7
:10284000002383F31188BDE8F081FEF761FC0023CB
:1028500083F31188B8FBF7F307FB03F304F10C02D1
:102860003046294600F0F4F8202383F31188FEF760
:1028700037FC3046294600F00BF9DFE7AFF3008064
:10288000704700BFAFF30080AFF30080AFF300806C
:10289000014B5B6883607047001000E0AFF300807D
:1028A0000B4B0C4A81685B6810B41468C2685B1AF1
:1028B0001B1B9342836006D802695DF8044B934268
:1028C00038BF03617047C3605DF8044B704700BFB9
:1028D000001000E0280E0020AFF30080AFF300806E
:1028E00010B586B00A4C0B4B0B4901934FF0FF30EB
:1028F00000230590236004934B68084A039301A8C2
:102900000292FFF7CDFF039B236006B010BD00BF0E
:10291000280E002091280008001000E0A1280008DF
:1029200010B5044690F8763080F87E3001F060FDF6
:1029300063681B6813B12046012198470323237065
:1029400010BD00BFAFF30080AFF30080AFF3008095
:1029500001F01EBDAFF30080AFF30080AFF3008045
:10296000012300210370416003460722013AD96226
:10297000996403F10403F9D102814281704700BFD9
:1029800038B504460D46F8B1F1B1202383F3118820
:10299000FEF76EFB2378013B012B02D90C48FEF7B2
:1029A00077FC002365601946E2180433202BD160C0
:1029B000FAD1204601F0F4FC02232370FEF770FBED
:1029C000002383F3118838BD0248FEF761FCDCE781
:1029D000505D0008405D0008AFF30080AFF3008059
:1029E000F8B504460E461546FEF7F2FB04B3FDB1FA
:1029F0002378042B02D01048FEF74AFC04EB86072C
:102A0000FB6813B10D48FEF743FC686918B100215B
:102A1000102202F0BDFDA86918B10021142202F0B5
:102A2000B7FDFD6020463146BDE8F84001F0F0BC3E
:102A30000348FEF72DFCDBE7945D0008B05D00085D
:102A40007C5D0008AFF30080AFF30080AFF300803F
:102A500070B400EB81040126E468A4690025E260FB
:102A600063602670A56070BC01F0AABDAFF3008062
:102A700070B400EB81040126E46864690025E2601B
:102A800063602670A56070BC01F0AABDAFF3008042
:102A900070B504460D46FEF79BFB8CB1638943FA83
:102AA00005F010F0010601D0012070BD0122AA40FE
:102AB000134320466381294601F0D2FD304670BDA4
:102AC0000148FEF7E5FBE9E7045E0008AFF300808C
:102AD00070B504460D46FEF77BFB8CB1238943FAA3
:102AE00005F010F0010601D0012070BD0122AA40BE
:102AF000134320462381294601F0C2FD304670BDB4
:102B00000148FEF7C5FBE9E71C5E0008AFF3008053
:102B10000022022101701346A0F87C2080F87E205C
:102B200080F87F20028142811146C2180433202B95
:102B3000D1604FF00002F8D180F8642001F0E0BCD1
:102B4000F8B50023044680F8643000F1740201F007
:102B500017FD63689B68002B31D02046984770B3FF
:102B6000E56E94F8743094F87B1094F87A2042EA79
:102B70000122AA423CBFE266154613F0800FE368CB
:102B800040F09780002D77D15B69052284F864209E
:102B900020461D70DD605D609D60294601F020FDCE
:102BA000202383F31188FEF79BFA29462046FFF77E
:102BB0008FFFFEF7ADFA2B4683F31188F8BD94F82A
:102BC000743013F0600711D02046002101F078FD29
:102BD0002046002101F064FD63681B6813B12046A4
:102BE00005219847062384F86430F8BD94F8756091
:102BF00003F07F0242EA0626B6F5407F00F001812D
:102C000018DDB6F5C06F00F0E38040F38B80B6F5B9
:102C1000106F00F0958040F60242964200F0D1809D
:102C2000B6F5006FD0D104F17F0201252767A266B7
:102C3000E56698E7022E00F0F48040F3B780B6F521
:102C4000807F00F09080B6F5817FBDD194F876202A
:102C5000002AB9D194F8782012F00F0107D012069B
:102C6000204600F1048101F03BFD94F8743000250A
:102C7000A566E566256776E79B69A26E00260421B6
:102C800084F864102046DA605D601E709E603146F4
:102C900001F096FC202383F31188FEF721FA3146D8
:102CA0002046FFF7F5FEFEF733FA334683F311882B
:102CB000F8BDE5B15B69A26E0026012184F86410BD
:102CC0002046DA605D601E709E60314601F088FC2F
:102CD000202383F31188FEF703FA31462046FFF7DD
:102CE000F7FEFEF715FA334683F31188F8BD9B69AA
:102CF000032284F8642020461D70DD605D609D60C5
:102D0000294601F05DFC202383F31188FEF7E8F9E2
:102D100029462046FFF7BCFEFEF7FAF92B4683F35F
:102D20001188F8BD40F2023296422CD0B6F5A06F61
:102D30007FF44AAF534AA766E7663D46226712E72B
:102D400094F8762084F87F20002A40F081800322C6
:102D5000227062681268002A89D0204602219047BA
:102D600094F8743083E794F87620012A7FF42CAF2E
:102D7000B4F87C20A76622F00202E76627673D468A
:102D8000A4F87C20EFE694F87620002A7FF41CAFAC
:102D900094F8782012F00F013FF469AF1306204633
:102DA0006AD401F07DFC94F8743060E736B904F120
:102DB0007C0202252667A266E566D4E6012E7FF432
:102DC00003AF314AA26602250022E5662267CAE601
:102DD000626894F8790094F87830556894F8771020
:102DE00094F8762043EA00232046A84700283FF4C1
:102DF000EBAE43680568E566A366276794F8743010
:102E0000B1E694F87620012A7FF4DEAEB4F87C2097
:102E1000A76642F00202E76627673D46A4F87C20D9
:102E2000A1E694F8781011F0800F204601F00F0110
:102E300011D101F085FB012811D002287FF4C4AE26
:102E4000124BA366E0662767054694F874308AE65D
:102E5000042222707DE701F083FB0128EDD10C4BA9
:102E6000A366E6662767354694F874307BE601F082
:102E70004FFC94F87430FAE601F022FC94F87430B8
:102E8000F5E600BF21290008205D0008305D00083C
:102E9000705E0008AFF30080AFF30080AFF30080F6
:102EA00038B590F86430022B044647D0052B3ED04D
:102EB000012B10D0002101F003FC2046002101F07D
:102EC000EFFB63681B6813B1204605219847062372
:102ED00084F8643038BD90F87B2090F87A30C56E65
:102EE00043EA0223AB42C26805D9138AB5FBF3F16A
:102EF00003FB115525B393690025032284F8642050
:102F000029461D70DD605D609D60204601F058FB24
:102F1000202383F31188FEF7E3F829462046FFF7C4
:102F2000B7FDFEF7F5F82B4683F3118838BD036F24
:102F300003B19847002384F8643038BDC268DAE7EB
:102F4000536929461D70DD605D609D6001F048FB9E
:102F5000202383F31188FEF7C3F829462046FFF7A4
:102F6000B7FDFEF7D5F82B4683F31188022384F8CA
:102F7000643038BDAFF30080AFF30080AFF3008062
:102F800038B590F86430032B04462FD0042B11D0B1
:102F90002046002101F094FB2046002101F080FB37
:102FA00063681B6813B1204605219847062384F8FF
:102FB000643038BDC3685B690025052280F8642051
:102FC00029461D70DD605D609D6001F009FB2023D6
:102FD00083F31188FEF784F829462046FFF778FD31
:102FE000FEF796F82B4683F3118838BDC3689B69BA
:102FF0009B68002BCCD1036F03B19847002384F862
:10300000643038BDAFF30080AFF30080AFF30080D1
:1030100008B5FEF79DF8084B084A19680F2058605C
:10302000136801400BB150689847FEF7B1F8BDE84E
:103030000840FDF7C5BE00BF000002402C0E002076
:1030400010B5FEF785F8084B084819688268F02427
:10305000C1F303115C600AB1C0689047FEF798F8AD
:10306000BDE81040FDF7ACBE000002402C0E002071
:1030700010B5FEF76DF8094B0948196802694FF45D
:103080007064C1F303215C600AB140699047FEF7A8
:103090007FF8BDE81040FDF793BE00BF000002407E
:1030A0002C0E0020AFF30080AFF30080AFF3008060
:1030B00010B5FEF74DF8094B0948196882694FF4BD
:1030C0007044C1F303315C600AB1C0699047FEF7F8
:1030D0005FF8BDE81040FDF773BE00BF000002407E
:1030E0002C0E0020AFF30080AFF30080AFF3008020
:1030F00010B5FEF72DF8094B09481968026A4FF41C
:103100007024C1F303415C600AB1406A9047FEF746
:103110003FF8BDE81040FDF753BE00BF000002407D
:103120002C0E0020AFF30080AFF30080AFF30080DF
:1031300010B5FEF70DF8094B09481968826A4FF47B
:103140007004C1F303515C600AB1C06A9047FEF796
:103150001FF8BDE81040FDF733BE00BF000002407D
:103160002C0E0020AFF30080AFF30080AFF300809F
:1031700010B5FDF7EDFF094B09481968026B4FF0D8
:103180007064C1F303615C600AB1406B9047FDF766
:10319000FFFFBDE81040FDF713BE00BF0000024076
:1031A0002C0E0020AFF30080AFF30080AFF300805F
:1031B00010B5FDF7CDFF084B08481968826B0F2446
:1031C00021405C600AB1C06B9047FDF7E1FFBDE8AC
:1031D0001040FDF7F5BD00BF000402402C0E00209A
:1031E00010B5FDF7B5FF084B08481968026CF024CC
:1031F000C1F303115C600AB1406C9047FDF7C8FF52
:10320000BDE81040FDF7DCBD000402402C0E00209C
:1032100010B5FDF79DFF094B09481968826C4FF402
:103220007064C1F303215C600AB1C06C9047FDF784
:10323000AFFFBDE81040FDF7C3BD00BF0004024072
:103240002C0E0020AFF30080AFF30080AFF30080BE
:1032500010B5FDF77DFF094B09481968026D4FF461
:103260007044C1F303315C600AB1406D9047FDF7D3
:103270008FFFBDE81040FDF7A3BD00BF0004024072
:103280002C0E0020AFF30080AFF30080AFF300807E
:1032900010B5FDF75DFF094B09481968826D4FF4C1
:1032A0007024C1F303415C600AB1C06D9047FDF723
:1032B0006FFFBDE81040FDF783BD00BF0004024072
:1032C0002C0E0020AFF30080AFF30080AFF300803E
:1032D0000B4B30B400220B4D0B4C1A6011461346B9
:1032E000E8580C33902B0160A15002F10802F7D18D
:1032F0000649074A4FF0FF334B6030BC53607047BC
:103300008C0E0020805E00082C0E00200000024081
:1033100000040240AFF30080AFF30080AFF3008001
:10332000F8B5244B24491A69244DDFF8A0E0244C59
:10333000244800224FF0FF361E6107271A61D3F898
:103340000CC0DE60DA60C1F804E08A600F60E968F2
:1033500041F08071E960216841F001012160D96983
:1033600041F08051D961016841F480710160196AAE
:1033700001F44071B1F5007F03D04FF48031196240
:103380001A620C4B1A6A120407D41A6A42F40072C9
:103390001A621A6A42F400421A62FFF799FF054A5C
:1033A000094B916941F0010191611A6842F02002D4
:1033B0001A60F8BD0010024010E000E0F0ED00E0FF
:1033C000001000E000700040000001403F190100C3
:1033D00021490B6843F001030B600B681E4A9807F4
:1033E000FBD51168002301F0F9011160114653600B
:1033F0004B68194A13F00C0FFAD1136843F4A02359
:10340000136011460B68144A9B03FBD5536A43F0C3
:103410000103536211464B6A0F4A9807FBD50F4BC5
:1034200053604FF480713023D1621363136843F00B
:1034300080731360136808499B01FBD5084B122267
:103440001A604B6843F002034B604B6803F00C03B7
:10345000082BFAD1704700BF0010024000241D0065
:1034600000200240AFF30080AFF30080AFF3008094
:1034700038B50A4C2046FEF70BFF094BA3624FF00C
:10348000A04542F28A53074AE56222636363122031
:103490005021BDE83840FDF713BD00BF900E00205D
:1034A00000030050805E0008AFF30080AFF300809F
:1034B000036B1A68596830B4156825F00F0515605C
:1034C0001B7A0F2404FA03F30B60C26A936859074E
:1034D00006D5936843F0100393609368DB06FCD431
:1034E00030BC7047AFF30080AFF30080AFF30080D3
:1034F000F8B5604CFDF72CFE4FF0A04322691D6823
:103500001D6042B1E8060CD4290636D4EA055CD425
:10351000AB0500F18380FDF73BFEBDE8F840FDF709
:103520004FBC236B1B685B68002BEDD02046FFF778
:10353000BFFF23699B684BB1052222702046012101
:1035400098472378052B04BF0223237000262661A9
:10355000484F202383F31188FDF7C2FD606928B12D
:103560004FF0FF3383627E61FDF712FFFDF7D0FD60
:10357000002383F311882906C8D53E4E3046FFF755
:1035800097FF23699B684BB10522327030460221B8
:1035900098473378052B04BF022333700026266139
:1035A000344F202383F31188FDF79AFD606928B119
:1035B0004FF0FF3383627E61FDF7EAFEFDF7A8FD61
:1035C000002383F31188EA05A2D52A4E3046FFF77F
:1035D0006FFF23699B684BB105223270304603218F
:1035E00098473378052B04BF0223337000262661E9
:1035F000204F202383F31188FDF772FD606928B105
:103600004FF0FF3383627E61FDF7C2FEFDF780FD60
:10361000002383F31188AB057FF57DAF154D284658
:10362000FFF746FF23699B684BB105222A702846A5
:10363000042198472B78052B04BF02232B7000250B
:1036400025610C4E202383F31188FDF749FD606945
:1036500028B14FF0FF3383627561FDF799FEFDF7E6
:1036600057FD002383F31188FDF792FDBDE8F84074
:10367000FDF7A6BB900E0020AFF30080AFF30080F3
:10368000F0B4444C444BE56945F00075E561D3F86E
:103690000042240C240444F0010444EA0024C3F84A
:1036A000004200295BD00025C3F81C522846C3F80D
:1036B00004522C46C3F80C52C3F81452C30003F151
:1036C000804303F5C84301300E28C3F84042C3F8D5
:1036D0004442F3D1304B0026012715681479E800E5
:1036E00000F1804014F0010F00F5C84006F101061A
:1036F00007FA05F505D0D3F804422C43C3F8044279
:10370000147914F0020F05D0D3F80C422C43C3F8FF
:103710000C421479640704D5D3F814422C43C3F83F
:1037200014429468C0F84042D468C0F84442D3F8C8
:103730001C028E4245EA000502F11002C3F81C5239
:10374000CBD1154A134BD2F8001221F00101C2F877
:103750000012DA6922F00072DA61F0BC7047C20030
:10376000012402F1804202F5C84204FA00F020432D
:10377000C3F84012C3F84412C2F84012C2F844120F
:10378000C3F80412C3F81412C3F80C02C3F81C02E5
:10379000D7E700BF0010024000640040AFF3008094
:1037A00010B5114CFDF7D4FC636B104A9A602023CE
:1037B00083F31188FDF794FC2369002B05DA0C488C
:1037C000FEF7D6F82369002BF9DB0A480121FEF742
:1037D0000FFAFDF79DFC002383F31188FDF7D8FC59
:1037E000BDE81040FDF7ECBAC80E00200101010051
:1037F000D00E0020EC0E0020AFF30080AFF300806D
:1038000038B51E4CFDF7A4FC636B1D69AA0718D1DF
:10381000EB0610D5636B10241C61202383F3118801
:10382000FDF75EFC21461648FEF7E2F9FDF770FC55
:10383000002383F31188FDF7ABFCBDE83840FDF7AA
:10384000BFBA5A6922F010025A61202383F311880B
:10385000FDF746FCE369002B05DA0A48FEF788F815
:10386000E369002BF9DB08480221FEF7C1F9FDF7F7
:103870004FFC002383F31188CAE700BFC80E002065
:10388000F00E0020DC0E0020E80E0020AFF30080D8
:1038900038B5214CFDF75CFC626B55681C23290789
:1038A000536023D46B071BD5636B9C699A6904F042
:1038B000070522F0700214F0700F9A6118BF45F0EE
:1038C0000805202383F31188FDF70AFC45EA04412B
:1038D0001248FEF78DF9FDF71BFC002383F31188D6
:1038E000FDF756FCBDE83840FDF76ABA11680323BE
:1038F00021F0020123702023116083F31188FDF76A
:10390000EFFB04F130000021FEF772F9FDF700FC37
:10391000002383F31188C5E7C80E0020F00E0020B5
:1039200010B5064C2046FEF7CBFC0021044B636328
:103930000A460E20BDE81040FFF7A2BEC80E0020C8
:1039400000640040AFF30080AFF30080AFF300806D
:10395000C368426870B51E8A9D89117DADB235403D
:10396000EE43B6B204461E8289B9AE0706D5037887
:103970000421032B017001D0D368984768071BD43A
:10398000EB0703D5636820461B69984770BDA907FC
:103990000BD46A07F4D523780422032B2270EFD0CE
:1039A00063682046DB689847EAE705219368017061
:1039B00098476A07E4D5EEE7636805229B682270A2
:1039C00020469847DCE700BFAFF30080AFF30080EC
:1039D00008B5FDF7BDFB0448FFF7BAFFFDF7D8FBBC
:1039E000BDE80840FDF7ECB9480F0020AFF30080B8
:1039F00008B5FDF7ADFB0448FFF7AAFFFDF7C8FBCC
:103A0000BDE80840FDF7DCB9480F0020AFF30080A7
:103A100008B5FDF79DFB0448FFF79AFFFDF7B8FBDB
:103A2000BDE80840FDF7CCB9000F0020AFF30080DF
:103A300008B5FDF78DFB0448FFF78AFFFDF7A8FBEB
:103A4000BDE80840FDF7BCB9180F0020AFF30080B7
:103A500008B5FDF77DFB0448FFF77AFFFDF798FBFB
:103A6000BDE80840FDF7ACB9300F0020AFF300808F
:103A700008B5FDF76DFB0448FFF76AFFFDF788FB0B
:103A8000BDE80840FDF79CB9300F0020AFF300807F
:103A9000F8B50C4F0C4E0D4D0D4C3846FEF738FC6A
:103AA0000C4BFB603046FEF733FC0B4BF3602846B3
:103AB000FEF72EFC094BEB602046FEF729FC084B75
:103AC000E360F8BD480F0020000F0020180F002011
:103AD000300F0020002C014000040040000800408E
:103AE00000340140AFF30080AFF30080AFF30080FB
:103AF00038B5194DFDF72CFB2B691A8A9C89A4B2A5
:103B00001440E24392B21A82A30720D4600719D46A
:103B1000210712D4E2060BD4E30703D56B680E48E5
:103B20009B689847FDF734FBBDE83840FDF748B97E
:103B30006B6809489B6A9847EEE76B6806481B6A02
:103B40009847E7E76B6804489B699847E0E76B682C
:103B500028461B699847D9E7600F0020AFF3008023
:103B600010B5044C2046FEF7E3FB4FF08043236181
:103B700010BD00BF600F0020AFF30080AFF30080E6
:103B8000F0B4364E364D7769364C3749374A384BA4
:103B900047F4FC0777614FF0904647687760876885
:103BA000B760C768F76007697761476937628769F7
:103BB000776207683760066A6E60466AAE60866A3A
:103BC000EE60C66A6E61066B2E62466B6E62C669F7
:103BD0002E60C56B6560056CA560456CE560856C05
:103BE0006561C56C2562056D6562856B2560846DB8
:103BF0004C60C46D8C60046ECC60446E4C61846E0D
:103C00000C62C46E4C62446D0C60416F5160816FF8
:103C10009160C16FD160D0F880105161D0F88410EC
:103C20001162D0F888105162016F1160D0F89020B5
:103C30005A60D0F894209A60D0F89820DA60D0F8D2
:103C40009C205A61D0F8A0201A62D0F8A4205A62B1
:103C5000D0F88C201A60F0BC704700BF0010024002
:103C60000004004800080048000C0048001000480C
:103C700000140048AFF30080AFF30080AFF3008082
:103C8000024B1A6842F080021A6070470038014007
:103C9000024B1A6842F080021A60704700440040EC
:103CA000024B1A6842F080021A60704700480040D8
:103CB0002DE9F041456F2F68EC692C622307064619
:103CC0003CD1E3052AD4A00618D4390601D5220632
:103CD00056D4630610D5202383F31188FDF700FA2C
:103CE000301D1021FDF784FFFDF712FA002383F346
:103CF000118827F040072F60BDE8F081202383F36F
:103D00001188FDF7EDF9A98C3046C9B2FEF7A8FB82
:103D1000FDF7FEF9002383F31188D6E7202383F310
:103D20001188FDF7DDF9301D4FF40071FDF760FFDC
:103D3000FDF7EEF9002383F31188C4E714F0080FB0
:103D400014BF4FF080084FF00008E00748BF48F06C
:103D50002008A10748BF48F04008620748BF48F460
:103D60008078202383F31188FDF7BAF94146301D8E
:103D7000FDF73EFFFDF7CCF9002383F31188A0E7A0
:103D8000202383F31188FDF7ABF906F13000FEF72D
:103D9000AFF8002807DB80B22885FDF7B9F90023CA
:103DA00083F3118895E7301D0821FDF721FF27F0E7
:103DB000C00343F040032B60EFE700BFAFF3008088
:103DC00008B5FDF7C5F90448FFF772FFFDF7E0F904
:103DD000BDE80840FCF7F4BF740F0020AFF300808B
:103DE00008B5FDF7B5F90448FFF762FFFDF7D0F914
:103DF000BDE80840FCF7E4BFF00F0020AFF30080FF
:103E000008B5FDF7A5F90448FFF752FFFDF7C0F923
:103E1000BDE80840FCF7D4BF6C100020AFF3008071
:103E2000F8B50E4F0E4E0F4D0F4A104C384600217C
:103E3000FEF7CEFA0E4B0F4A7B6730460021BC6777
:103E4000FEF7C6FA0C4B0D4A736728460021B4678B
:103E5000FEF7BEFA0A4BAC676B67F8BD740F002023
:103E6000F00F00206C100020813C0008005125025A
:103E700000380140913C000800440040A13C00088B
:103E800000480040AFF30080AFF30080AFF3008044
:103E9000F8B5254D037A002918BF0D46012B0446BD
:103EA0001BD0AA88E988A76F28892E68636F42F41F
:103EB000967241F04004B7FBF6F540F0010042F085
:103EC0000102ADB2A4B280B292B24FF0FF319D8137
:103ED0005C6098601A601962F8BD144B98420FD06C
:103EE000134B984216D0134B9842DAD1124BDA6931
:103EF00042F48022DA612720C021FCF7E1FFD0E7FD
:103F00000D4B9A6942F480429A612520C021FCF74A
:103F1000D7FFC6E7084BDA6942F40032DA6126209F
:103F2000C021FCF7CDFFBCE7105F0008740F002034
:103F3000F00F00206C10002000100240AFF3008052
:103F4000036803F1005C2DE9F0410CF5405C93B28D
:103F50005FEA52080C464FEA4C0C838018D00E6979
:103F600065464146A069431C9E42A36198BFE36831
:103F70000778581CA0611B7886429CBFE068A0614E
:103F800047EA0323013945F8043BEBD10CEB880CDD
:103F9000D3070BD5A16920694B1CA3618342097823
:103FA00028BFE368CCF8001028BFA361202383F367
:103FB0001188A36820680C4E1A440121A042A26017
:103FC000316018BF002508D0036823605C60FDF7EE
:103FD000DFF985622068A042F6D10023336083F3C5
:103FE0001188BDE8F08100BFCC0D0020AFF3008048
:103FF00008B5FDF7ADF8FDF7CBF8BDE80840FCF7D4
:10400000DFBE00BFAFF30080AFF30080AFF30080EE
:104010002DE9F04F83B0FDF79BF8924B5E6C710574
:1040200000F19F81320511D5DFF83CB28D4BDBF8F2
:104030000420196C126841F00801196412B1584645
:1040400003219047874B6FF400625A64F30408D54C
:10405000844B9A6C170440F17481824B6FF4805248
:104060005A64B5050BD5DFF800B2DBF80430DB6825
:104070000BB1584698477B4B6FF400725A64340476
:1040800040F1BF80DFF8E0B106F00F064FEA860985
:1040900009F1804505F5B84506F102082C680BEBDF
:1040A000880320065F685BD52B686E48796923F426
:1040B000F14323F070032B60026D8B68486802F1B6
:1040C000005202F540524FEAC60E72445200B2F856
:1040D00004C01FFA8CFC63448B60C31A00F0B380E9
:1040E0003A8A0878934238BF1A46002840F01C816B
:1040F000C8686044C8605B490B6D03F1005303F569
:10410000405373445B001FFA82FE1968A3F804E071
:1041100001F10051531C01F540515B084FEA410188
:1041200006D0821E32F8020F41F8040B013BF9D190
:10413000202383F3118809F1804909F5B849FCF778
:10414000CFFFD9F8003023F4F04323F0400383F08D
:104150003003C9F80030FCF7DBFF002383F311883C
:10416000210447D52B6823F4784323F070032205FC
:104170002B605FD43B48BC69036D227803F1005388
:1041800003F5405303EBC6035B00B3F80CE01FFAE2
:104190008EFECEF30909002A68D19968E26801F120
:1041A000005109F1010301F540515B084FEA41015B
:1041B00006D051F8040B22F8020B013BF9D1E2685A
:1041C0004A44E26023461A8A7C8A98685968013A10
:1041D00092B24844C9EB0101A1451A829860596026
:1041E00016D3AAB12B6823F4904323F0700383F411
:1041F00040532B60DFF86CE0DEF8446033043FF599
:1042000043AFFCF7C5FF03B0BDE8F04FFCF7D8BDE6
:104210000BEB8808BBF80A20D8F804301248DB689A
:10422000012404FA06F122EA0102ABF80A20314621
:104230009847DFE70BEB88083146D8F804300A4886
:104240005B689847D6E7084B07481A89BB684FF068
:10425000010E0EFA06F122EA010202813146984768
:104260007EE700BF005C0040E81000209B68E46827
:1042700003F1005303F540535B005FEA59010093DB
:10428000019121D000980B46626950F8041B02F19D
:10429000010AC4F814A0117022694FEA112C616957
:1042A000914228BFE1684A1C626181F800C022691E
:1042B0006169914224BFE2686261013BE4D19DE8FB
:1042C0000C0002EB830200921EF0010F0DD0636917
:1042D000DDF800E0591CDEF8002061611A702369E6
:1042E00062699A4224BFE3686361202383F31188E3
:1042F000FCF7F6FEA36820684B44A042A36018BFF9
:104300004FF0000A09D0036823605C60FDF740F8B5
:10431000C0F828A02068A042F5D1FCF7F9FE0023E0
:1043200083F31188BB694EE71648C968036D03F132
:10433000005303F5405303EB0E004000FFF700FE6F
:10434000F6E6DFF844B0196CDBF80420126821F0BF
:1043500008011964002A3FF480AE584604219047B2
:104360007BE6DFF824B05846FEF7D2FBDBF80430DA
:104370001B6813B1584600219847024B6FF48062C6
:104380005A644FE6005C0040E8100020AFF3008064
:104390000148FEF7E5BA00BFE8100020AFF3008047
:1043A00038B50378012B044600D038BD0C4A904242
:1043B00004D02046BDE83840FEF7AABB094A0A4DA2
:1043C000D16941F40001D1614A202B64D021FCF76E
:1043D00077FD4B20E021FCF773FD00232B64E8E719
:1043E000E810002000100240005C0040AFF30080A5
:1043F00090F87E20024B42F08002DA64704700BFE2
:10440000005C0040AFF30080AFF30080AFF30080AA
:1044100000EB81032DE9F041DC68236803F003031E
:10442000013B022B9CBF314A32F81330A26805468B
:1044300088BF4FF400730AB143F02003E2680AB169
:1044400043F400538A0002F1804243EA010002F57E
:10445000B84220F4F04020F0700010601668678ABF
:1044600047F67000184070403E2F106007F1FF3291
:104470002DD942F01F02013252116FEAC2626FEA77
:10448000524292B21A4BD5F880801E6D238A06F1F3
:10449000005606F5405606EBC1067600434400215F
:1044A000B3F5007FB180B281C5F8803018D8C6F866
:1044B0000080D5F880402744B7F5007FC5F88070AC
:1044C00002D90C48FCF7E4FEB460BDE8F08142F08C
:1044D0000102013202EBD272520202F47C42D1E7B5
:1044E0000448FCF7D5FE678AE1E700BF405F00089B
:1044F000005C0040205F0008AFF30080AFF3008055
:1045000041680D4BC968F0B400294FF000040B4D11
:104510001C6514BF4FF41E474FF41C4740264FF054
:10452000800C5C642146C3F84CC01F64C0F88060F6
:10453000C560F0BCFFF76CBF005C0040505F000836
:10454000054B53F8210010F4405004D0B0F5805FC3
:104550000CBF012002207047005C0040AFF30080D8
:10456000054B53F8210010F0300003D010280CBF89
:1045700001200220704700BF005C0040AFF30080C4
:104580000B4B1B6D03F1005303F5405303EBC101CB
:104590004B0002F108009B6803F1005303F5405300
:1045A0005B0053F8041B22F8021B8242F9D17047CA
:1045B000005C0040AFF30080AFF30080AFF30080F9
:1045C00000EB8101C9688B695A6832B1498A013AA6
:1045D0000A44B2FBF1F11982704701221A82704736
:1045E00000EB810010B4C36858691A8A43680C460E
:1045F00001789A4228BF1A46164BF1B9C168186D66
:1046000000F1005000F5405000EBC404640093B288
:104610002068A38000F10050531C00F540505B0857
:104620004FEA400206D0023931F8020F42F8040B7B
:10463000013BF9D15DF8044B70471B6DC16803F174
:10464000005303F5405303EBC40040005DF8044BF6
:10465000FFF776BC005C0040AFF30080AFF3008052
:10466000890001F1804101F5B8410B6823F49043C2
:1046700023F0700383F440530B607047AFF3008066
:10468000890001F1804101F5B8410B6823F4F04342
:1046900023F0400383F030030B607047AFF30080DA
:1046A000890001F1804101F5B8410B6823F4904382
:1046B00023F0700383F480530B607047AFF30080E6
:1046C000890001F1804101F5B8410B6823F4F04302
:1046D00023F0400383F010030B607047AFF30080BA
:1046E000890001F1804101F5B8410B6803F44053A2
:1046F000B3F5405F07D00B6823F4F04323F0400389
:1047000083F400530B607047AFF30080AFF3008079
:10471000890001F1804101F5B8410B6803F03003D5
:10472000302B07D00B6823F4F04323F0400383F0D1
:1047300020030B60704700BFAFF30080AFF3008031
:10474000FEF746BEAFF30080AFF30080AFF300800A
:10475000704700BFAFF30080AFF30080AFF300807D
:104760000EB400B582B003AA52F8041B019200F007
:104770001FFA02B05DF804EB03B07047AFF300809E
:10478000002903DD0449054AFFF7EABF044B054948
:10479000DA68FFF7E5BF00BF306000083C60000842
:1047A000D40D002044600008AFF30080AFF3008018
:1047B00010B5002982B0044606DD1949194A02B035
:1047C000BDE81040FFF7CCBF1749184AFFF7C8FFF4
:1047D00020461749174AFFF7C3FF20461649174AD4
:1047E000FFF7BEFF20461649164AFFF7B9FF2046DD
:1047F0001549164AFFF7B4FF20461549154AFFF739
:10480000AFFF20461449154AFFF7AAFF144B009347
:1048100020461449144A154BFFF7A2FF02B010BD01
:10482000306000084C6000085460000868600008B0
:10483000786000088C60000898600008AC60000890
:10484000B8600008CC600008D8600008EC60000880
:104850000461000818610008306100084461000824
:10486000946100086C610008846100089061000890
:1048700038B504460D4690B1286020460B4900F03B
:1048800027FF04442046094900F0FAFE60B1421CAB
:1048900000232A600370237823B1204638BD0C68BA
:1048A000002CEAD1002038BD2860F4E7A0610008A0
:1048B000014B1B60704700BF88110020AFF30080E0
:1048C00000B583B0034B00900020FDF701F803B062
:1048D0005DF804FBA1490008AFF30080AFF300804E
:1048E00000B583B00090084611461A46024BFCF70B
:1048F00027FF03B05DF804FBA1490008AFF3008077
:10490000F0B5013A83B00E468F1804460D46236871
:1049100020465B680DF107010122984738B39DF8E6
:104920000710042926D008290ED00D2929D01F29C7
:10493000EDD9BD42EBD2236820469B6898479DF88D
:1049400007302B700135E2E7B5422046DFD02368FF
:104950009B689847236820469B68202198472368D6
:104960009DF807109B682046013D9847CFE701203E
:1049700003B0F0BD20460749FFF7F2FE012003B067
:10498000F0BD20460449FFF7EBFE0020287003B07D
:10499000F0BD00BFA461000840610008AFF30080D3
:1049A0002DE9F0415C4B06689B695C4AD0F80480B5
:1049B0005B499A6196B03046FFF7D2FE30465949BE
:1049C000FFF7CEFE304606A94022FFF799FF0446C6
:1049D00000282FD1694606A8FFF74AFF6946074617
:1049E00000206D46FFF744FF50B1042C1BD045F862
:1049F000040F694600200134FFF73AFF0028F4D184
:104A000016AA02EB840343F8540C002FD6D0384684
:104A1000454900F00DFE08BB84B130464349424A87
:104A2000FFF79EFECAE730464149FFF799FE002393
:104A30000593C3E730463F49FFF792FE202383F3F7
:104A40001188FCF715FB00213B48FDF7D1F8002049
:104A5000FCF7C6FE002016B0BDE8F08138463749A5
:104A600000F0E6FD30B93046BCB13049334AFFF7BB
:104A700077FEA3E7324D286820B931E055F8080FDA
:104A800000282DD0394600F0D3FD0028F6D16B6800
:104A90002146304601AA984790E7294D2949FFF75A
:104AA0005FFE2A682C463AB130462749FFF758FE88
:104AB00054F8082F002AF7D1B8F1000F0BD0D8F81E
:104AC000002042B1444630461F49FFF749FE54F8E2
:104AD000082F002AF7D130461C49FFF741FE6DE749
:104AE000B8F1000F0DD0D8F8000050B1454602E0F3
:104AF00055F8080F28B1394600F09AFD0028F7D183
:104B0000C5E730463A461249FFF72AFE30461149BA
:104B1000FFF726FE52E700BFE40D0020A861000861
:104B2000B0610008C8610008F46100083060000846
:104B3000DC610008D061000888110020FC610008D9
:104B400008080020046200081C6200084061000898
:104B50002062000824620008AFF30080AFF30080F9
:104B6000F0B4002B08BF0B46471D051DB1FBF2F644
:104B700002FB161101F13004392CC8BF01F13704D2
:104B8000E4B2B3FBF2F331462E4605F80149002B9F
:104B9000ECD1BA1B3346024401E013F8014F00F890
:104BA000014B9042F9D1F0BC704700BFAFF30080D9
:104BB0002DE9F04F2DED028B89B005460C461746C6
:104BC0000DF1140B2178631C51B125290DD02A68F1
:104BD0001C469268284690472178631C0029F4D12E
:104BE00009B0BDEC028BBDE8F08F62782D2A03BFBF
:104BF000A278A31C4FF0010C4FF0000C2E2A00F0FD
:104C00003781302A00F034814FF020081C460026FE
:104C100006E03B78043706EB8606227803EB46066F
:104C2000A2F13003DBB2092B04F10104F3D92A2AE3
:104C3000EFD02E2A4FF0000145D002F0DF034C2BBD
:104C40004ED0A2F14403342B00F20881DFE813F0C8
:104C5000FE000601060106010601FE00060106012E
:104C6000060106010601FC00060106010601060117
:104C700006014E00060106018B0006010601060131
:104C80000601060106010601060106010601EE0005
:104C9000FE000601AF0006010601FE000601060146
:104CA000060106010601FC000601060106018D0051
:104CB00006014E00060106018B003B78043701EB2C
:104CC000810103EB410114F8012BA2F13003DBB2A7
:104CD000092BF4D92A2AF0D002F0DF034C2BB0D1F3
:104CE0002378002BADD001341A46AAE70A2239688E
:104CF000584604370023CDF804C0FFF731FFDDF834
:104D000004C0CBEB000000F1FF3AD946361A26EA80
:104D1000E676BCF1000F0DD176425EB199F8001035
:104D20002D2900F0AA802B6828469B6841469847A9
:104D30000136F8D1BAF1000F0ADBCA4409F1FF3994
:104D40002B6819F8011F9B6828469847D145F7D171
:104D5000002E3FF437AF2B6828469B6841469847A2
:104D6000013EF8D12EE71022C1E7D7F80090574B4B
:104D7000B9F1000F08BF994647F6FF7399F8000094
:104D80000437002908BF1946002800F099804944DB
:104D90004B4601E08B427DD05A780133002AF9D18D
:104DA000C9EB030000F1FF3A4FF02008AEE70737E8
:104DB00027F00707D7E90001CDF804C0FBF7C0FED4
:104DC00008EE100AB5EEC08AF1EE10FA07F10807F6
:104DD000DDF804C06CD45846FDEEC87A0A2217EEFE
:104DE000901A002317EE90AACDF804C0FFF7B8FE82
:104DF00081462E2309F8013B18EE100AFBF70CFC44
:104E0000CDE902015046FBF7F5FB02460B46DDE912
:104E10000201FBF7A1FA00222D4BFBF751FCFBF737
:104E200067FE0A2201466423484666E70DF1150035
:104E30003B688DF81430CBEB000000F1FF3A0437EB
:104E40004FF02008D94661E7082250E73968002969
:104E500007F1040725DB58460A224BE70DF1150040
:104E6000CBEB00008DF8142000F1FF3AD9464DE756
:104E70005A784FF030080133C8E6B8F1300F7FF4AC
:104E800052AF2B6828469B68984709F101090AF13F
:104E9000FF3A48E7C9EB010000F1FF3A4FF0200864
:104EA00034E72D2349428DF814300DF11500D3E776
:104EB0002D23B1EE488A8DF814300DF115008BE7E3
:104EC0004FF0FF3A4FF0200820E700BF30620008A3
:104ED00000408F40AFF30080AFF30080AFF300805D
:104EE000022906D0032906D00748012918BF00204F
:104EF000704706487047032A03D8054800EBC200F4
:104F000070470020704700BFF0630008706200081F
:104F1000C0630008AFF30080AFF30080AFF3008000
:104F2000022938B50C46054616D1202383F3118893
:104F3000FCF7D6F828460121084AFDF751FD214625
:104F4000074A2846FDF74CFD0648FDF7C9FBFCF76C
:104F5000DFF8002383F3118838BD00BF40620008EA
:104F600080620008001B0020AFF30080AFF30080D8
:104F7000704700BFAFF30080AFF30080AFF3008055
:104F80000EB400B582B003AA054852F8041B019282
:104F9000FFF70EFE02B05DF804EB03B0704700BFF0
:104FA000001B0020AFF30080AFF30080AFF3008060
:104FB00070B5164D16482A681649FFF7E1FFAA7A20
:104FC00013481549FFF7DCFFAB7A73B105F10A0608
:104FD00000240F48114936F8022FFFF7D1FFAB7AB2
:104FE0000134A342F5DC072B0FD8AB7AC3F10803D9
:104FF000002B0ADD002406480949FFF7C1FFAB7A00
:105000000134C3F10803A342F5DC70BD781D002014
:10501000001B002040640008486400084C6400083D
:1050200050640008AFF30080AFF30080AFF300805E
:10503000FFF7BEBFAFF30080AFF30080AFF3008097
:1050400008B5FCF785F8084B0848998A084A89B2E0
:1050500081F400719982002100F0B2F9FCF798F810
:10506000BDE80840FBF7ACBE0010004800640040FB
:10507000781D0020AFF30080AFF30080AFF3008015
:1050800070B483B000230193036823F0020303602C
:10509000036843F0010303604368DD070ED4019BFE
:1050A0006FF07F42934203D108E0019B934205D009
:1050B000019B013301934368DC07F6D5436813F085
:1050C000010364D08B79012B03680CBF43F080038C
:1050D00023F080030360CB79012B03680CBF43F0FE
:1050E000400323F0400303600B7A012B03680CBFDD
:1050F00043F0200323F0200303604B7A012B036865
:105100000CBF43F0100323F0100303608B7A012BD4
:1051100003680CBF43F0080323F008030360CB7A55
:10512000012B03680CBF43F0040323F00403036066
:105130008A78CE780D794C790B88920742EA06621C
:1051400042EA054242EA0452013B1343C36102684A
:10515000002322F00102026001934368DA070ED5B2
:10516000019B6FF07F42934203D108E0019B934281
:1051700005D0019B013301934368DB07F6D44068F7
:1051800000F0010080F0010003B070BC70471846C9
:1051900003B070BC704700BFAFF30080AFF3008076
:1051A0003D4B827AD3F8001241F001012DE9F00164
:1051B000C3F800120124D3F81C129440E2431140BA
:1051C000C3F81C12017BC1B9D3F80C72B0F8068089
:1051D000B0F802C08688058830491740C3F80C72C1
:1051E000877A48374CEA084C43F837C0837ADB00AB
:1051F000194445EA06434B60017B012932D0C37A4A
:105200004BBB254BD3F804121140C3F80412038999
:10521000C3B9214BD3F814120A40C3F81422437BBC
:10522000012B05D11C4BD3F81C221443C3F81C429C
:10523000194BD3F8002222F00102C3F80022BDE886
:10524000F0017047012BEAD1134BD3F8142222430B
:10525000C3F81422E3E7104BD3F804122143C3F838
:105260000412D4E70C49B0F80080D1F80C72B0F801
:1052700002C08688C588094B2743C1F80C72877A1B
:1052800048374CEA084C41F837C0817AC9000B44D2
:1052900045EA06415960B2E70064004040660040BC
:1052A000002310B402210324012204714171028001
:1052B0008371C371037243728372C3728370C3704C
:1052C0005DF8044B704700BFAFF30080AFF3008080
:1052D00083682DE9F00F5C01024605D4836818014C
:1052E00064D50123184601E0002318461C01131958
:1052F000D3F8805105F00105C3F8805191F808C03A
:10530000BCF1000F48D04D68D3F880614F7A4CEA69
:10531000C50C4CEA06053D43C3F8805191F80AB02C
:10532000B1F81090B1F818C0B1F812A0B1F81A8015
:105330008F898E8ACD890BF00F0B81F80AB0D3F8D4
:1053400084B12BF00F0BC3F884B14FEA09494FEA3F
:105350000C4C91F80AB0C98A224449EA0A69D3F888
:1053600084414CEA086C49EA07074CEA06064BEA16
:10537000040447EA052546EA0121C3F88441C2F83E
:105380008851C2F88C11D3F8802142F00102C3F891
:105390008021BDE8F00F70470D684F7AD3F8806127
:1053A00047EA45553543C3F88051B7E79368DB00BA
:1053B00002D50223184699E70420BDE8F00F704794
:1053C00000EB01132DE9F007D3F8B04104F0040419
:1053D000E4B21472002C43D1D3F8B041640D1460D0
:1053E000D3F8B04104F002045472D3F8B44104F08D
:1053F0000F049472D3F8B45100EB01132D0A157702
:10540000D3F8B891D3F8B881D3F8B8C1D3F8B8714C
:10541000D3F8BC61D3F8BC51D3F8BCA1D3F8BC31EC
:105420005FFA89F9C8F30728CCF3074C3F0EF6B2B0
:10543000C5F30725CAF307441B0EA2F80C90A2F887
:105440000E80A2F810C057829682D58214835383AF
:1054500059B1036943F020030361BDE8F0077047C9
:10546000D3F8B041E4085460BAE7C36843F02003BE
:10547000C360BDE8F0077047AFF30080AFF3008072
:1054800043691AB923EA0101416170471943416137
:10549000704700BFAFF30080AFF30080AFF3008030
:1054A00000222DE9F00F13460E6801274FF0030884
:1054B00004E00133102B02F1020229D007FA03F4B1
:1054C00004EA0605A542F4D10C7904F1FF3CBCF1D5
:1054D000010F08FA02FC1ED96FEA0C0C056891F85E
:1054E00007900CEA05050560056894402C430460AC
:1054F000C46808FA02F524EA0504C460C56809FA1C
:1055000002F401332C43102BC46002F10202D5D106
:10551000BDE8F00F7047D0F808B091F8059091F809
:1055200006A06FEA0C0C0CEA0B0BC0F808B0D0F820
:1055300008B009FA02F949EA0B09C0F80890B0F876
:1055400004901FFA89F929EA05058580B0F80490CE
:105550000AFA03F545EA0905ADB28580BEE700BF4A
:10556000CB0800EB830001F0070110B48900046A46
:105570000F238B4024EA03030362036A5DF8044BA4
:105580008A40134303627047AFF30080AFF300809B
:10559000F0B4840743D0541E002A3ED0CDB2034657
:1055A00003E0621E002C38D0144603F8015B9A0712
:1055B000F7D1032C2AD9CDB245EA05250F2C45EAAF
:1055C000054515D9A4F110073F0903F1100606EBB4
:1055D00007161A46156055609560D5601032B242C4
:1055E000F8D104F00F040137032C03EB07130DD996
:1055F0001E462246043A032A46F8045BFAD8221FC4
:1056000022F003020432134404F003042CB1C9B2A3
:105610001C4403F8011BA342FBD1F0BC70471446A5
:105620000346C6E700000000000000000000000084
:1056300040F62003C2F2000330B405461C6802E0C5
:10564000D01A16D1ABB115F8013BE0181A464078D4
:1056500000F00300012808BF03F1200211F8013B0C
:10566000E018407800F003000128E9D12033D01A77
:10567000E9D030BC704700BF00000000000000000F
:10568000F0B404780CB30E780746C6B1A64210D029
:105690004B1C01E094420BD01D4613F8012B002A4D
:1056A000F8D144780130002CEED12E78074600E086
:1056B0002646002E14BF38460020F0BC70474478C0
:1056C0000D460130002CDFD1EFE72046F0BC7047DB
:1056D000F0B40478CCB10E7807469EB10546B442CA
:1056E0000AD00A4601E09C4206D012F8013F002B86
:1056F000F9D1281AF0BC70476C787D1C002CF8D0CA
:105700002F46ECE73046F0BC70472046F2E700BF7A
:1057100069646C65000000000000000000000000EB
:10572000535623310000000053562332000000007E
:10573000535623330000000053562334000000006A
:105740005356233500000000535623360000000056
:105750005356233700000000535623380000000042
:105760005356233900000000535623313000000007
:1057700053562331310000000000000000000000FB
:10578000226368565453657449222829000000009A
:1057900022636856545265736574492228290000B3
:1057A0006368565452657365744928292C20233147
:1057B00000000000000000000000000000000000E9
:1057C000636853636852656164794928292C2023F2
:1057D00031000000737461636B206F766572666CD4
:1057E0006F770000000000000000000000000000D3
:1057F000226368546864437265617465492228298C
:105800000000000022636854686453657450726934
:105810006F72697479222829000000006368546857
:1058200064526573756D6528292C202331000000B2
:10583000226368546864536C6565702228290000EF
:105840006368546864457869745328292C2023318F
:10585000000000002263685468645761697422285C
:105860002900000063685468645761697428292C12
:105870002023310063685468645761697428292CB7
:1058800020233200000000000000000000000000A3
:10589000636854686441646452656628292C202337
:1058A00031000000636854686452656C656173651B
:1058B00028292C2023310000226368546864437235
:1058C0006561746546726F6D4D656D6F7279506F6D
:1058D0006F6C22282900000000000000000000007A
:1058E0006D61696E0016421104044C080C10141806
:1058F0001C202122232400000000000000000000E2
:1059000022636853656D496E69742228290000007E
:1059100022636853656D52657365744922282900B6
:10592000636853656D52657365744928292C20237B
:105930003100000022636853656D5761697453221A
:1059400028290000636853656D57616974532829DD
:105950002C2023310000000022636853656D5761DD
:10596000697454696D656F757453222829000000AD
:10597000636853656D5761697454696D656F7574BB
:105980005328292C2023310022636853656D536905
:10599000676E616C22282900636853656D536967DF
:1059A0006E616C28292C202331000000226368538B
:1059B000656D5369676E616C4922282900000000FB
:1059C000636853656D5369676E616C4928292C20A3
:1059D0002331000022636853656D416464436F7531
:1059E0006E746572492228290000000063685365BF
:1059F0006D416464436F756E7465724928292C206B
:105A00002331000022636853656D5369676E616CD2
:105A10005761697422282900636853656D5369676B
:105A20006E616C5761697428292C202331000000B5
:105A3000636853656D5369676E616C57616974285B
:105A4000292C20233200000000000000000000008C
:105A50002263684D7478496E697422282900000019
:105A60002263684D74784C6F636B532228290000C1
:105A700063684D74784C6F636B5328292C20233155
:105A80000000000063684D74784C6F636B532829E5
:105A90002C202332000000002263684D7478547279
:105AA000794C6F636B5322282900000063684D74A2
:105AB00078556E6C6F636B28292C20233100000011
:105AC00063684D7478556E6C6F636B28292C2023A6
:105AD0003200000063684D7478556E6C6F636B53D1
